{
  "contractName": "RockPaperScissorsGame",
  "abi": [
    {
      "constant": true,
      "inputs": [
        {
          "name": "_old",
          "type": "bytes"
        },
        {
          "name": "_new",
          "type": "bytes"
        }
      ],
      "name": "validTransition",
      "outputs": [
        {
          "name": "",
          "type": "bool"
        }
      ],
      "payable": false,
      "stateMutability": "pure",
      "type": "function",
      "signature": "0x9207bf96"
    }
  ],
  "bytecode": "0x608060405234801561001057600080fd5b5061597380620000216000396000f300608060405260043610610041576000357c0100000000000000000000000000000000000000000000000000000000900463ffffffff1680639207bf9614610046575b600080fd5b34801561005257600080fd5b506100f3600480360381019080803590602001908201803590602001908080601f0160208091040260200160405190810160405280939291908181526020018383808284378201915050505050509192919290803590602001908201803590602001908080601f016020809104026020016040519081016040528093929190818152602001838380828437820191505050505050919291929050505061010d565b604051808215151515815260200191505060405180910390f35b600080600481111561011b57fe5b8373__RockPaperScissorsState________________638a0cc0ed90916040518263ffffffff167c01000000000000000000000000000000000000000000000000000000000281526004018080602001828103825283818151815260200191508051906020019080838360005b838110156101a3578082015181840152602081019050610188565b50505050905090810190601f1680156101d05780820380516001836020036101000a031916815260200191505b509250505060206040518083038186803b1580156101ed57600080fd5b505af4158015610201573d6000803e3d6000fd5b505050506040513d602081101561021757600080fd5b8101908080519060200190929190505050600481111561023357fe5b14156104b9576001600481111561024657fe5b8273__RockPaperScissorsState________________638a0cc0ed90916040518263ffffffff167c01000000000000000000000000000000000000000000000000000000000281526004018080602001828103825283818151815260200191508051906020019080838360005b838110156102ce5780820151818401526020810190506102b3565b50505050905090810190601f1680156102fb5780820380516001836020036101000a031916815260200191505b509250505060206040518083038186803b15801561031857600080fd5b505af415801561032c573d6000803e3d6000fd5b505050506040513d602081101561034257600080fd5b8101908080519060200190929190505050600481111561035e57fe5b14156103775761036e8383610dda565b60019050610dd4565b60048081111561038357fe5b8273__RockPaperScissorsState________________638a0cc0ed90916040518263ffffffff167c01000000000000000000000000000000000000000000000000000000000281526004018080602001828103825283818151815260200191508051906020019080838360005b8381101561040b5780820151818401526020810190506103f0565b50505050905090810190601f1680156104385780820380516001836020036101000a031916815260200191505b509250505060206040518083038186803b15801561045557600080fd5b505af4158015610469573d6000803e3d6000fd5b505050506040513d602081101561047f57600080fd5b8101908080519060200190929190505050600481111561049b57fe5b14156104b4576104ab8383611c8a565b60019050610dd4565b610d40565b600160048111156104c657fe5b8373__RockPaperScissorsState________________638a0cc0ed90916040518263ffffffff167c01000000000000000000000000000000000000000000000000000000000281526004018080602001828103825283818151815260200191508051906020019080838360005b8381101561054e578082015181840152602081019050610533565b50505050905090810190601f16801561057b5780820380516001836020036101000a031916815260200191505b509250505060206040518083038186803b15801561059857600080fd5b505af41580156105ac573d6000803e3d6000fd5b505050506040513d60208110156105c257600080fd5b810190808051906020019092919050505060048111156105de57fe5b141561086557600060048111156105f157fe5b8273__RockPaperScissorsState________________638a0cc0ed90916040518263ffffffff167c01000000000000000000000000000000000000000000000000000000000281526004018080602001828103825283818151815260200191508051906020019080838360005b8381101561067957808201518184015260208101905061065e565b50505050905090810190601f1680156106a65780820380516001836020036101000a031916815260200191505b509250505060206040518083038186803b1580156106c357600080fd5b505af41580156106d7573d6000803e3d6000fd5b505050506040513d60208110156106ed57600080fd5b8101908080519060200190929190505050600481111561070957fe5b14156107225761071983836124f6565b60019050610dd4565b6002600481111561072f57fe5b8273__RockPaperScissorsState________________638a0cc0ed90916040518263ffffffff167c01000000000000000000000000000000000000000000000000000000000281526004018080602001828103825283818151815260200191508051906020019080838360005b838110156107b757808201518184015260208101905061079c565b50505050905090810190601f1680156107e45780820380516001836020036101000a031916815260200191505b509250505060206040518083038186803b15801561080157600080fd5b505af4158015610815573d6000803e3d6000fd5b505050506040513d602081101561082b57600080fd5b8101908080519060200190929190505050600481111561084757fe5b1415610860576108578383612d62565b60019050610dd4565b610d3f565b6002600481111561087257fe5b8373__RockPaperScissorsState________________638a0cc0ed90916040518263ffffffff167c01000000000000000000000000000000000000000000000000000000000281526004018080602001828103825283818151815260200191508051906020019080838360005b838110156108fa5780820151818401526020810190506108df565b50505050905090810190601f1680156109275780820380516001836020036101000a031916815260200191505b509250505060206040518083038186803b15801561094457600080fd5b505af4158015610958573d6000803e3d6000fd5b505050506040513d602081101561096e57600080fd5b8101908080519060200190929190505050600481111561098a57fe5b1415610ad3576003600481111561099d57fe5b8273__RockPaperScissorsState________________638a0cc0ed90916040518263ffffffff167c01000000000000000000000000000000000000000000000000000000000281526004018080602001828103825283818151815260200191508051906020019080838360005b83811015610a25578082015181840152602081019050610a0a565b50505050905090810190601f168015610a525780820380516001836020036101000a031916815260200191505b509250505060206040518083038186803b158015610a6f57600080fd5b505af4158015610a83573d6000803e3d6000fd5b505050506040513d6020811015610a9957600080fd5b81019080805190602001909291905050506004811115610ab557fe5b1415610ace57610ac58383613b16565b60019050610dd4565b610d3e565b60036004811115610ae057fe5b8373__RockPaperScissorsState________________638a0cc0ed90916040518263ffffffff167c01000000000000000000000000000000000000000000000000000000000281526004018080602001828103825283818151815260200191508051906020019080838360005b83811015610b68578082015181840152602081019050610b4d565b50505050905090810190601f168015610b955780820380516001836020036101000a031916815260200191505b509250505060206040518083038186803b158015610bb257600080fd5b505af4158015610bc6573d6000803e3d6000fd5b505050506040513d6020811015610bdc57600080fd5b81019080805190602001909291905050506004811115610bf857fe5b1415610d3d5760006004811115610c0b57fe5b8273__RockPaperScissorsState________________638a0cc0ed90916040518263ffffffff167c01000000000000000000000000000000000000000000000000000000000281526004018080602001828103825283818151815260200191508051906020019080838360005b83811015610c93578082015181840152602081019050610c78565b50505050905090810190601f168015610cc05780820380516001836020036101000a031916815260200191505b509250505060206040518083038186803b158015610cdd57600080fd5b505af4158015610cf1573d6000803e3d6000fd5b505050506040513d6020811015610d0757600080fd5b81019080805190602001909291905050506004811115610d2357fe5b1415610d3c57610d338383614f2c565b60019050610dd4565b5b5b5b5b6040517f08c379a00000000000000000000000000000000000000000000000000000000081526004018080602001828103825260248152602001807f4e6f2076616c6964207472616e736974696f6e20666f756e6420666f7220737481526020017f617465730000000000000000000000000000000000000000000000000000000081525060400191505060405180910390fd5b92915050565b8173__RockPaperScissorsState________________632d1e0c0290916040518263ffffffff167c01000000000000000000000000000000000000000000000000000000000281526004018080602001828103825283818151815260200191508051906020019080838360005b83811015610e62578082015181840152602081019050610e47565b50505050905090810190601f168015610e8f5780820380516001836020036101000a031916815260200191505b509250505060206040518083038186803b158015610eac57600080fd5b505af4158015610ec0573d6000803e3d6000fd5b505050506040513d6020811015610ed657600080fd5b81019080805190602001909291905050508173__RockPaperScissorsState________________632d1e0c0290916040518263ffffffff167c01000000000000000000000000000000000000000000000000000000000281526004018080602001828103825283818151815260200191508051906020019080838360005b83811015610f6f578082015181840152602081019050610f54565b50505050905090810190601f168015610f9c5780820380516001836020036101000a031916815260200191505b509250505060206040518083038186803b158015610fb957600080fd5b505af4158015610fcd573d6000803e3d6000fd5b505050506040513d6020811015610fe357600080fd5b810190808051906020019092919050505014151561100057600080fd5b8073__RockPaperScissorsState________________632d1e0c0290916040518263ffffffff167c01000000000000000000000000000000000000000000000000000000000281526004018080602001828103825283818151815260200191508051906020019080838360005b8381101561108857808201518184015260208101905061106d565b50505050905090810190601f1680156110b55780820380516001836020036101000a031916815260200191505b509250505060206040518083038186803b1580156110d257600080fd5b505af41580156110e6573d6000803e3d6000fd5b505050506040513d60208110156110fc57600080fd5b81019080805190602001909291905050508273__RockPaperScissorsState________________634c291ecd90916040518263ffffffff167c01000000000000000000000000000000000000000000000000000000000281526004018080602001828103825283818151815260200191508051906020019080838360005b8381101561119557808201518184015260208101905061117a565b50505050905090810190601f1680156111c25780820380516001836020036101000a031916815260200191505b509250505060206040518083038186803b1580156111df57600080fd5b505af41580156111f3573d6000803e3d6000fd5b505050506040513d602081101561120957600080fd5b81019080805190602001909291905050501015606060405190810160405280602481526020017f50726576656e74696e67206120696e7465676572206f766572666c6f7720617481526020017f7461636b00000000000000000000000000000000000000000000000000000000815250901515611321576040517f08c379a00000000000000000000000000000000000000000000000000000000081526004018080602001828103825283818151815260200191508051906020019080838360005b838110156112e65780820151818401526020810190506112cb565b50505050905090810190601f1680156113135780820380516001836020036101000a031916815260200191505b509250505060405180910390fd5b508073__RockPaperScissorsState________________632d1e0c0290916040518263ffffffff167c01000000000000000000000000000000000000000000000000000000000281526004018080602001828103825283818151815260200191508051906020019080838360005b838110156113aa57808201518184015260208101905061138f565b50505050905090810190601f1680156113d75780820380516001836020036101000a031916815260200191505b509250505060206040518083038186803b1580156113f457600080fd5b505af4158015611408573d6000803e3d6000fd5b505050506040513d602081101561141e57600080fd5b81019080805190602001909291905050508273__RockPaperScissorsState________________634e77b06390916040518263ffffffff167c01000000000000000000000000000000000000000000000000000000000281526004018080602001828103825283818151815260200191508051906020019080838360005b838110156114b757808201518184015260208101905061149c565b50505050905090810190601f1680156114e45780820380516001836020036101000a031916815260200191505b509250505060206040518083038186803b15801561150157600080fd5b505af4158015611515573d6000803e3d6000fd5b505050506040513d602081101561152b57600080fd5b81019080805190602001909291905050501015606060405190810160405280602481526020017f50726576656e74696e67206120696e7465676572206f766572666c6f7720617481526020017f7461636b00000000000000000000000000000000000000000000000000000000815250901515611643576040517f08c379a00000000000000000000000000000000000000000000000000000000081526004018080602001828103825283818151815260200191508051906020019080838360005b838110156116085780820151818401526020810190506115ed565b50505050905090810190601f1680156116355780820380516001836020036101000a031916815260200191505b509250505060405180910390fd5b508173__RockPaperScissorsState________________634c291ecd90916040518263ffffffff167c01000000000000000000000000000000000000000000000000000000000281526004018080602001828103825283818151815260200191508051906020019080838360005b838110156116cc5780820151818401526020810190506116b1565b50505050905090810190601f1680156116f95780820380516001836020036101000a031916815260200191505b509250505060206040518083038186803b15801561171657600080fd5b505af415801561172a573d6000803e3d6000fd5b505050506040513d602081101561174057600080fd5b81019080805190602001909291905050508173__RockPaperScissorsState________________634c291ecd90916040518263ffffffff167c01000000000000000000000000000000000000000000000000000000000281526004018080602001828103825283818151815260200191508051906020019080838360005b838110156117d95780820151818401526020810190506117be565b50505050905090810190601f1680156118065780820380516001836020036101000a031916815260200191505b509250505060206040518083038186803b15801561182357600080fd5b505af4158015611837573d6000803e3d6000fd5b505050506040513d602081101561184d57600080fd5b810190808051906020019092919050505014606060405190810160405280603c81526020017f546865207265736f6c7574696f6e20666f7220706c617965722041206d75737481526020017f206265207468652073616d65206265747765656e207374617465732e00000000815250901515611964576040517f08c379a00000000000000000000000000000000000000000000000000000000081526004018080602001828103825283818151815260200191508051906020019080838360005b8381101561192957808201518184015260208101905061190e565b50505050905090810190601f1680156119565780820380516001836020036101000a031916815260200191505b509250505060405180910390fd5b508173__RockPaperScissorsState________________634e77b06390916040518263ffffffff167c01000000000000000000000000000000000000000000000000000000000281526004018080602001828103825283818151815260200191508051906020019080838360005b838110156119ed5780820151818401526020810190506119d2565b50505050905090810190601f168015611a1a5780820380516001836020036101000a031916815260200191505b509250505060206040518083038186803b158015611a3757600080fd5b505af4158015611a4b573d6000803e3d6000fd5b505050506040513d6020811015611a6157600080fd5b81019080805190602001909291905050508173__RockPaperScissorsState________________634e77b06390916040518263ffffffff167c01000000000000000000000000000000000000000000000000000000000281526004018080602001828103825283818151815260200191508051906020019080838360005b83811015611afa578082015181840152602081019050611adf565b50505050905090810190601f168015611b275780820380516001836020036101000a031916815260200191505b509250505060206040518083038186803b158015611b4457600080fd5b505af4158015611b58573d6000803e3d6000fd5b505050506040513d6020811015611b6e57600080fd5b810190808051906020019092919050505014606060405190810160405280603c81526020017f546865207265736f6c7574696f6e20666f7220706c617965722042206d75737481526020017f206265207468652073616d65206265747765656e207374617465732e00000000815250901515611c85576040517f08c379a00000000000000000000000000000000000000000000000000000000081526004018080602001828103825283818151815260200191508051906020019080838360005b83811015611c4a578082015181840152602081019050611c2f565b50505050905090810190601f168015611c775780820380516001836020036101000a031916815260200191505b509250505060405180910390fd5b505050565b8173__RockPaperScissorsState________________632d1e0c0290916040518263ffffffff167c01000000000000000000000000000000000000000000000000000000000281526004018080602001828103825283818151815260200191508051906020019080838360005b83811015611d12578082015181840152602081019050611cf7565b50505050905090810190601f168015611d3f5780820380516001836020036101000a031916815260200191505b509250505060206040518083038186803b158015611d5c57600080fd5b505af4158015611d70573d6000803e3d6000fd5b505050506040513d6020811015611d8657600080fd5b81019080805190602001909291905050508173__RockPaperScissorsState________________632d1e0c0290916040518263ffffffff167c01000000000000000000000000000000000000000000000000000000000281526004018080602001828103825283818151815260200191508051906020019080838360005b83811015611e1f578082015181840152602081019050611e04565b50505050905090810190601f168015611e4c5780820380516001836020036101000a031916815260200191505b509250505060206040518083038186803b158015611e6957600080fd5b505af4158015611e7d573d6000803e3d6000fd5b505050506040513d6020811015611e9357600080fd5b8101908080519060200190929190505050141515611eb057600080fd5b8173__RockPaperScissorsState________________634c291ecd90916040518263ffffffff167c01000000000000000000000000000000000000000000000000000000000281526004018080602001828103825283818151815260200191508051906020019080838360005b83811015611f38578082015181840152602081019050611f1d565b50505050905090810190601f168015611f655780820380516001836020036101000a031916815260200191505b509250505060206040518083038186803b158015611f8257600080fd5b505af4158015611f96573d6000803e3d6000fd5b505050506040513d6020811015611fac57600080fd5b81019080805190602001909291905050508173__RockPaperScissorsState________________634c291ecd90916040518263ffffffff167c01000000000000000000000000000000000000000000000000000000000281526004018080602001828103825283818151815260200191508051906020019080838360005b8381101561204557808201518184015260208101905061202a565b50505050905090810190601f1680156120725780820380516001836020036101000a031916815260200191505b509250505060206040518083038186803b15801561208f57600080fd5b505af41580156120a3573d6000803e3d6000fd5b505050506040513d60208110156120b957600080fd5b810190808051906020019092919050505014606060405190810160405280603c81526020017f546865207265736f6c7574696f6e20666f7220706c617965722041206d75737481526020017f206265207468652073616d65206265747765656e207374617465732e000000008152509015156121d0576040517f08c379a00000000000000000000000000000000000000000000000000000000081526004018080602001828103825283818151815260200191508051906020019080838360005b8381101561219557808201518184015260208101905061217a565b50505050905090810190601f1680156121c25780820380516001836020036101000a031916815260200191505b509250505060405180910390fd5b508173__RockPaperScissorsState________________634e77b06390916040518263ffffffff167c01000000000000000000000000000000000000000000000000000000000281526004018080602001828103825283818151815260200191508051906020019080838360005b8381101561225957808201518184015260208101905061223e565b50505050905090810190601f1680156122865780820380516001836020036101000a031916815260200191505b509250505060206040518083038186803b1580156122a357600080fd5b505af41580156122b7573d6000803e3d6000fd5b505050506040513d60208110156122cd57600080fd5b81019080805190602001909291905050508173__RockPaperScissorsState________________634e77b06390916040518263ffffffff167c01000000000000000000000000000000000000000000000000000000000281526004018080602001828103825283818151815260200191508051906020019080838360005b8381101561236657808201518184015260208101905061234b565b50505050905090810190601f1680156123935780820380516001836020036101000a031916815260200191505b509250505060206040518083038186803b1580156123b057600080fd5b505af41580156123c4573d6000803e3d6000fd5b505050506040513d60208110156123da57600080fd5b810190808051906020019092919050505014606060405190810160405280603c81526020017f546865207265736f6c7574696f6e20666f7220706c617965722042206d75737481526020017f206265207468652073616d65206265747765656e207374617465732e000000008152509015156124f1576040517f08c379a00000000000000000000000000000000000000000000000000000000081526004018080602001828103825283818151815260200191508051906020019080838360005b838110156124b657808201518184015260208101905061249b565b50505050905090810190601f1680156124e35780820380516001836020036101000a031916815260200191505b509250505060405180910390fd5b505050565b8173__RockPaperScissorsState________________632d1e0c0290916040518263ffffffff167c01000000000000000000000000000000000000000000000000000000000281526004018080602001828103825283818151815260200191508051906020019080838360005b8381101561257e578082015181840152602081019050612563565b50505050905090810190601f1680156125ab5780820380516001836020036101000a031916815260200191505b509250505060206040518083038186803b1580156125c857600080fd5b505af41580156125dc573d6000803e3d6000fd5b505050506040513d60208110156125f257600080fd5b81019080805190602001909291905050508173__RockPaperScissorsState________________632d1e0c0290916040518263ffffffff167c01000000000000000000000000000000000000000000000000000000000281526004018080602001828103825283818151815260200191508051906020019080838360005b8381101561268b578082015181840152602081019050612670565b50505050905090810190601f1680156126b85780820380516001836020036101000a031916815260200191505b509250505060206040518083038186803b1580156126d557600080fd5b505af41580156126e9573d6000803e3d6000fd5b505050506040513d60208110156126ff57600080fd5b810190808051906020019092919050505014151561271c57600080fd5b8173__RockPaperScissorsState________________634c291ecd90916040518263ffffffff167c01000000000000000000000000000000000000000000000000000000000281526004018080602001828103825283818151815260200191508051906020019080838360005b838110156127a4578082015181840152602081019050612789565b50505050905090810190601f1680156127d15780820380516001836020036101000a031916815260200191505b509250505060206040518083038186803b1580156127ee57600080fd5b505af4158015612802573d6000803e3d6000fd5b505050506040513d602081101561281857600080fd5b81019080805190602001909291905050508173__RockPaperScissorsState________________634c291ecd90916040518263ffffffff167c01000000000000000000000000000000000000000000000000000000000281526004018080602001828103825283818151815260200191508051906020019080838360005b838110156128b1578082015181840152602081019050612896565b50505050905090810190601f1680156128de5780820380516001836020036101000a031916815260200191505b509250505060206040518083038186803b1580156128fb57600080fd5b505af415801561290f573d6000803e3d6000fd5b505050506040513d602081101561292557600080fd5b810190808051906020019092919050505014606060405190810160405280603c81526020017f546865207265736f6c7574696f6e20666f7220706c617965722041206d75737481526020017f206265207468652073616d65206265747765656e207374617465732e00000000815250901515612a3c576040517f08c379a00000000000000000000000000000000000000000000000000000000081526004018080602001828103825283818151815260200191508051906020019080838360005b83811015612a015780820151818401526020810190506129e6565b50505050905090810190601f168015612a2e5780820380516001836020036101000a031916815260200191505b509250505060405180910390fd5b508173__RockPaperScissorsState________________634e77b06390916040518263ffffffff167c01000000000000000000000000000000000000000000000000000000000281526004018080602001828103825283818151815260200191508051906020019080838360005b83811015612ac5578082015181840152602081019050612aaa565b50505050905090810190601f168015612af25780820380516001836020036101000a031916815260200191505b509250505060206040518083038186803b158015612b0f57600080fd5b505af4158015612b23573d6000803e3d6000fd5b505050506040513d6020811015612b3957600080fd5b81019080805190602001909291905050508173__RockPaperScissorsState________________634e77b06390916040518263ffffffff167c01000000000000000000000000000000000000000000000000000000000281526004018080602001828103825283818151815260200191508051906020019080838360005b83811015612bd2578082015181840152602081019050612bb7565b50505050905090810190601f168015612bff5780820380516001836020036101000a031916815260200191505b509250505060206040518083038186803b158015612c1c57600080fd5b505af4158015612c30573d6000803e3d6000fd5b505050506040513d6020811015612c4657600080fd5b810190808051906020019092919050505014606060405190810160405280603c81526020017f546865207265736f6c7574696f6e20666f7220706c617965722042206d75737481526020017f206265207468652073616d65206265747765656e207374617465732e00000000815250901515612d5d576040517f08c379a00000000000000000000000000000000000000000000000000000000081526004018080602001828103825283818151815260200191508051906020019080838360005b83811015612d22578082015181840152602081019050612d07565b50505050905090810190601f168015612d4f5780820380516001836020036101000a031916815260200191505b509250505060405180910390fd5b505050565b8173__RockPaperScissorsState________________632d1e0c0290916040518263ffffffff167c01000000000000000000000000000000000000000000000000000000000281526004018080602001828103825283818151815260200191508051906020019080838360005b83811015612dea578082015181840152602081019050612dcf565b50505050905090810190601f168015612e175780820380516001836020036101000a031916815260200191505b509250505060206040518083038186803b158015612e3457600080fd5b505af4158015612e48573d6000803e3d6000fd5b505050506040513d6020811015612e5e57600080fd5b81019080805190602001909291905050508273__RockPaperScissorsState________________634c291ecd90916040518263ffffffff167c01000000000000000000000000000000000000000000000000000000000281526004018080602001828103825283818151815260200191508051906020019080838360005b83811015612ef7578082015181840152602081019050612edc565b50505050905090810190601f168015612f245780820380516001836020036101000a031916815260200191505b509250505060206040518083038186803b158015612f4157600080fd5b505af4158015612f55573d6000803e3d6000fd5b505050506040513d6020811015612f6b57600080fd5b8101908080519060200190929190505050038173__RockPaperScissorsState________________634c291ecd90916040518263ffffffff167c01000000000000000000000000000000000000000000000000000000000281526004018080602001828103825283818151815260200191508051906020019080838360005b83811015613005578082015181840152602081019050612fea565b50505050905090810190601f1680156130325780820380516001836020036101000a031916815260200191505b509250505060206040518083038186803b15801561304f57600080fd5b505af4158015613063573d6000803e3d6000fd5b505050506040513d602081101561307957600080fd5b810190808051906020019092919050505014151561314b576040517f08c379a00000000000000000000000000000000000000000000000000000000081526004018080602001828103825260518152602001807f5265736f6c7574696f6e20666f7220706c6179657220412073686f756c64206281526020017f652064656372656d656e7465642062792031207374616b652066726f6d20746881526020017f652070726576696f75732073746174652e00000000000000000000000000000081525060600191505060405180910390fd5b8173__RockPaperScissorsState________________632d1e0c0290916040518263ffffffff167c01000000000000000000000000000000000000000000000000000000000281526004018080602001828103825283818151815260200191508051906020019080838360005b838110156131d35780820151818401526020810190506131b8565b50505050905090810190601f1680156132005780820380516001836020036101000a031916815260200191505b509250505060206040518083038186803b15801561321d57600080fd5b505af4158015613231573d6000803e3d6000fd5b505050506040513d602081101561324757600080fd5b81019080805190602001909291905050508273__RockPaperScissorsState________________634e77b06390916040518263ffffffff167c01000000000000000000000000000000000000000000000000000000000281526004018080602001828103825283818151815260200191508051906020019080838360005b838110156132e05780820151818401526020810190506132c5565b50505050905090810190601f16801561330d5780820380516001836020036101000a031916815260200191505b509250505060206040518083038186803b15801561332a57600080fd5b505af415801561333e573d6000803e3d6000fd5b505050506040513d602081101561335457600080fd5b8101908080519060200190929190505050018173__RockPaperScissorsState________________634e77b06390916040518263ffffffff167c01000000000000000000000000000000000000000000000000000000000281526004018080602001828103825283818151815260200191508051906020019080838360005b838110156133ee5780820151818401526020810190506133d3565b50505050905090810190601f16801561341b5780820380516001836020036101000a031916815260200191505b509250505060206040518083038186803b15801561343857600080fd5b505af415801561344c573d6000803e3d6000fd5b505050506040513d602081101561346257600080fd5b8101908080519060200190929190505050141515613534576040517f08c379a00000000000000000000000000000000000000000000000000000000081526004018080602001828103825260518152602001807f5265736f6c7574696f6e20666f7220706c6179657220422073686f756c64206281526020017f6520696e6372656d656e7465642062792031207374616b652066726f6d20746881526020017f652070726576696f75732073746174652e00000000000000000000000000000081525060600191505060405180910390fd5b8173__RockPaperScissorsState________________632d1e0c0290916040518263ffffffff167c01000000000000000000000000000000000000000000000000000000000281526004018080602001828103825283818151815260200191508051906020019080838360005b838110156135bc5780820151818401526020810190506135a1565b50505050905090810190601f1680156135e95780820380516001836020036101000a031916815260200191505b509250505060206040518083038186803b15801561360657600080fd5b505af415801561361a573d6000803e3d6000fd5b505050506040513d602081101561363057600080fd5b81019080805190602001909291905050508173__RockPaperScissorsState________________632d1e0c0290916040518263ffffffff167c01000000000000000000000000000000000000000000000000000000000281526004018080602001828103825283818151815260200191508051906020019080838360005b838110156136c95780820151818401526020810190506136ae565b50505050905090810190601f1680156136f65780820380516001836020036101000a031916815260200191505b509250505060206040518083038186803b15801561371357600080fd5b505af4158015613727573d6000803e3d6000fd5b505050506040513d602081101561373d57600080fd5b810190808051906020019092919050505014606060405190810160405280602b81526020017f546865207374616b652073686f756c64206265207468652073616d652062657481526020017f7765656e20737461746573000000000000000000000000000000000000000000815250901515613854576040517f08c379a00000000000000000000000000000000000000000000000000000000081526004018080602001828103825283818151815260200191508051906020019080838360005b838110156138195780820151818401526020810190506137fe565b50505050905090810190601f1680156138465780820380516001836020036101000a031916815260200191505b509250505060405180910390fd5b508173__RockPaperScissorsState________________638b5b5b3290916040518263ffffffff167c01000000000000000000000000000000000000000000000000000000000281526004018080602001828103825283818151815260200191508051906020019080838360005b838110156138dd5780820151818401526020810190506138c2565b50505050905090810190601f16801561390a5780820380516001836020036101000a031916815260200191505b509250505060206040518083038186803b15801561392757600080fd5b505af415801561393b573d6000803e3d6000fd5b505050506040513d602081101561395157600080fd5b8101908080519060200190929190505050600019168173__RockPaperScissorsState________________638b5b5b3290916040518263ffffffff167c01000000000000000000000000000000000000000000000000000000000281526004018080602001828103825283818151815260200191508051906020019080838360005b838110156139ee5780820151818401526020810190506139d3565b50505050905090810190601f168015613a1b5780820380516001836020036101000a031916815260200191505b509250505060206040518083038186803b158015613a3857600080fd5b505af4158015613a4c573d6000803e3d6000fd5b505050506040513d6020811015613a6257600080fd5b810190808051906020019092919050505060001916141515613b12576040517f08c379a00000000000000000000000000000000000000000000000000000000081526004018080602001828103825260338152602001807f507265636f6d6d69742073686f756c64206265207468652073616d652061732081526020017f7468652070726576696f75732073746174652e0000000000000000000000000081525060400191505060405180910390fd5b5050565b60008060008473__RockPaperScissorsState________________632d1e0c0290916040518263ffffffff167c01000000000000000000000000000000000000000000000000000000000281526004018080602001828103825283818151815260200191508051906020019080838360005b83811015613ba3578082015181840152602081019050613b88565b50505050905090810190601f168015613bd05780820380516001836020036101000a031916815260200191505b509250505060206040518083038186803b158015613bed57600080fd5b505af4158015613c01573d6000803e3d6000fd5b505050506040513d6020811015613c1757600080fd5b81019080805190602001909291905050508473__RockPaperScissorsState________________632d1e0c0290916040518263ffffffff167c01000000000000000000000000000000000000000000000000000000000281526004018080602001828103825283818151815260200191508051906020019080838360005b83811015613cb0578082015181840152602081019050613c95565b50505050905090810190601f168015613cdd5780820380516001836020036101000a031916815260200191505b509250505060206040518083038186803b158015613cfa57600080fd5b505af4158015613d0e573d6000803e3d6000fd5b505050506040513d6020811015613d2457600080fd5b810190808051906020019092919050505014606060405190810160405280602b81526020017f546865207374616b652073686f756c64206265207468652073616d652062657481526020017f7765656e20737461746573000000000000000000000000000000000000000000815250901515613e3b576040517f08c379a00000000000000000000000000000000000000000000000000000000081526004018080602001828103825283818151815260200191508051906020019080838360005b83811015613e00578082015181840152602081019050613de5565b50505050905090810190601f168015613e2d5780820380516001836020036101000a031916815260200191505b509250505060405180910390fd5b508473__RockPaperScissorsState________________6316666c7090916040518263ffffffff167c01000000000000000000000000000000000000000000000000000000000281526004018080602001828103825283818151815260200191508051906020019080838360005b83811015613ec4578082015181840152602081019050613ea9565b50505050905090810190601f168015613ef15780820380516001836020036101000a031916815260200191505b509250505060206040518083038186803b158015613f0e57600080fd5b505af4158015613f22573d6000803e3d6000fd5b505050506040513d6020811015613f3857600080fd5b81019080805190602001909291905050506002811115613f5457fe5b8473__RockPaperScissorsState________________6316666c7090916040518263ffffffff167c01000000000000000000000000000000000000000000000000000000000281526004018080602001828103825283818151815260200191508051906020019080838360005b83811015613fdc578082015181840152602081019050613fc1565b50505050905090810190601f1680156140095780820380516001836020036101000a031916815260200191505b509250505060206040518083038186803b15801561402657600080fd5b505af415801561403a573d6000803e3d6000fd5b505050506040513d602081101561405057600080fd5b8101908080519060200190929190505050600281111561406c57fe5b141515614107576040517f08c379a00000000000000000000000000000000000000000000000000000000081526004018080602001828103825260318152602001807f506c6179657220427320706c61792073686f756c64206265207468652073616d81526020017f65206265747765656e207374617465732e00000000000000000000000000000081525060400191505060405180910390fd5b8373__RockPaperScissorsState________________63259b0d3390916040518263ffffffff167c01000000000000000000000000000000000000000000000000000000000281526004018080602001828103825283818151815260200191508051906020019080838360005b8381101561418f578082015181840152602081019050614174565b50505050905090810190601f1680156141bc5780820380516001836020036101000a031916815260200191505b509250505060206040518083038186803b1580156141d957600080fd5b505af41580156141ed573d6000803e3d6000fd5b505050506040513d602081101561420357600080fd5b8101908080519060200190929190505050600281111561421f57fe5b8473__RockPaperScissorsState________________63f7487e0690916040518263ffffffff167c01000000000000000000000000000000000000000000000000000000000281526004018080602001828103825283818151815260200191508051906020019080838360005b838110156142a757808201518184015260208101905061428c565b50505050905090810190601f1680156142d45780820380516001836020036101000a031916815260200191505b509250505060206040518083038186803b1580156142f157600080fd5b505af4158015614305573d6000803e3d6000fd5b505050506040513d602081101561431b57600080fd5b8101908080519060200190929190505050604051602001808381526020018260001916600019168152602001925050506040516020818303038152906040526040518082805190602001908083835b60208310151561438f578051825260208201915060208101905060208303925061436a565b6001836020036101000a038019825116818451168082178552505050505050905001915050604051809103902090508473__RockPaperScissorsState________________638b5b5b3290916040518263ffffffff167c01000000000000000000000000000000000000000000000000000000000281526004018080602001828103825283818151815260200191508051906020019080838360005b8381101561444657808201518184015260208101905061442b565b50505050905090810190601f1680156144735780820380516001836020036101000a031916815260200191505b509250505060206040518083038186803b15801561449057600080fd5b505af41580156144a4573d6000803e3d6000fd5b505050506040513d60208110156144ba57600080fd5b810190808051906020019092919050505060001916816000191614151561456f576040517f08c379a00000000000000000000000000000000000000000000000000000000081526004018080602001828103825260258152602001807f5468652068617368206e6565647320746f206d6174636820746865207072656381526020017f6f6d6d697400000000000000000000000000000000000000000000000000000081525060400191505060405180910390fd5b61489e8473__RockPaperScissorsState________________63259b0d3390916040518263ffffffff167c01000000000000000000000000000000000000000000000000000000000281526004018080602001828103825283818151815260200191508051906020019080838360005b838110156145fa5780820151818401526020810190506145df565b50505050905090810190601f1680156146275780820380516001836020036101000a031916815260200191505b509250505060206040518083038186803b15801561464457600080fd5b505af4158015614658573d6000803e3d6000fd5b505050506040513d602081101561466e57600080fd5b81019080805190602001909291905050508573__RockPaperScissorsState________________6316666c7090916040518263ffffffff167c01000000000000000000000000000000000000000000000000000000000281526004018080602001828103825283818151815260200191508051906020019080838360005b838110156147075780820151818401526020810190506146ec565b50505050905090810190601f1680156147345780820380516001836020036101000a031916815260200191505b509250505060206040518083038186803b15801561475157600080fd5b505af4158015614765573d6000803e3d6000fd5b505050506040513d602081101561477b57600080fd5b81019080805190602001909291905050508673__RockPaperScissorsState________________632d1e0c0290916040518263ffffffff167c01000000000000000000000000000000000000000000000000000000000281526004018080602001828103825283818151815260200191508051906020019080838360005b838110156148145780820151818401526020810190506147f9565b50505050905090810190601f1680156148415780820380516001836020036101000a031916815260200191505b509250505060206040518083038186803b15801561485e57600080fd5b505af4158015614872573d6000803e3d6000fd5b505050506040513d602081101561488857600080fd5b8101908080519060200190929190505050615893565b8093508194505050828573__RockPaperScissorsState________________634c291ecd90916040518263ffffffff167c01000000000000000000000000000000000000000000000000000000000281526004018080602001828103825283818151815260200191508051906020019080838360005b8381101561492f578082015181840152602081019050614914565b50505050905090810190601f16801561495c5780820380516001836020036101000a031916815260200191505b509250505060206040518083038186803b15801561497957600080fd5b505af415801561498d573d6000803e3d6000fd5b505050506040513d60208110156149a357600080fd5b8101908080519060200190929190505050018473__RockPaperScissorsState________________634c291ecd90916040518263ffffffff167c01000000000000000000000000000000000000000000000000000000000281526004018080602001828103825283818151815260200191508051906020019080838360005b83811015614a3d578082015181840152602081019050614a22565b50505050905090810190601f168015614a6a5780820380516001836020036101000a031916815260200191505b509250505060206040518083038186803b158015614a8757600080fd5b505af4158015614a9b573d6000803e3d6000fd5b505050506040513d6020811015614ab157600080fd5b8101908080519060200190929190505050141515614b5d576040517f08c379a00000000000000000000000000000000000000000000000000000000081526004018080602001828103825260388152602001807f506c6179657220412773207265736f6c7574696f6e2073686f756c642062652081526020017f757064617465642077697468207468652077696e6e696e67000000000000000081525060400191505060405180910390fd5b818573__RockPaperScissorsState________________632d1e0c0290916040518263ffffffff167c01000000000000000000000000000000000000000000000000000000000281526004018080602001828103825283818151815260200191508051906020019080838360005b83811015614be6578082015181840152602081019050614bcb565b50505050905090810190601f168015614c135780820380516001836020036101000a031916815260200191505b509250505060206040518083038186803b158015614c3057600080fd5b505af4158015614c44573d6000803e3d6000fd5b505050506040513d6020811015614c5a57600080fd5b81019080805190602001909291905050506002028673__RockPaperScissorsState________________634e77b06390916040518263ffffffff167c01000000000000000000000000000000000000000000000000000000000281526004018080602001828103825283818151815260200191508051906020019080838360005b83811015614cf6578082015181840152602081019050614cdb565b50505050905090810190601f168015614d235780820380516001836020036101000a031916815260200191505b509250505060206040518083038186803b158015614d4057600080fd5b505af4158015614d54573d6000803e3d6000fd5b505050506040513d6020811015614d6a57600080fd5b810190808051906020019092919050505003018473__RockPaperScissorsState________________634e77b06390916040518263ffffffff167c01000000000000000000000000000000000000000000000000000000000281526004018080602001828103825283818151815260200191508051906020019080838360005b83811015614e05578082015181840152602081019050614dea565b50505050905090810190601f168015614e325780820380516001836020036101000a031916815260200191505b509250505060206040518083038186803b158015614e4f57600080fd5b505af4158015614e63573d6000803e3d6000fd5b505050506040513d6020811015614e7957600080fd5b8101908080519060200190929190505050141515614f25576040517f08c379a00000000000000000000000000000000000000000000000000000000081526004018080602001828103825260388152602001807f506c6179657220422773207265736f6c7574696f6e2073686f756c642062652081526020017f757064617465642077697468207468652077696e6e696e67000000000000000081525060400191505060405180910390fd5b5050505050565b8173__RockPaperScissorsState________________632d1e0c0290916040518263ffffffff167c01000000000000000000000000000000000000000000000000000000000281526004018080602001828103825283818151815260200191508051906020019080838360005b83811015614fb4578082015181840152602081019050614f99565b50505050905090810190601f168015614fe15780820380516001836020036101000a031916815260200191505b509250505060206040518083038186803b158015614ffe57600080fd5b505af4158015615012573d6000803e3d6000fd5b505050506040513d602081101561502857600080fd5b81019080805190602001909291905050508173__RockPaperScissorsState________________632d1e0c0290916040518263ffffffff167c01000000000000000000000000000000000000000000000000000000000281526004018080602001828103825283818151815260200191508051906020019080838360005b838110156150c15780820151818401526020810190506150a6565b50505050905090810190601f1680156150ee5780820380516001836020036101000a031916815260200191505b509250505060206040518083038186803b15801561510b57600080fd5b505af415801561511f573d6000803e3d6000fd5b505050506040513d602081101561513557600080fd5b810190808051906020019092919050505014606060405190810160405280602b81526020017f546865207374616b652073686f756c64206265207468652073616d652062657481526020017f7765656e2073746174657300000000000000000000000000000000000000000081525090151561524c576040517f08c379a00000000000000000000000000000000000000000000000000000000081526004018080602001828103825283818151815260200191508051906020019080838360005b838110156152115780820151818401526020810190506151f6565b50505050905090810190601f16801561523e5780820380516001836020036101000a031916815260200191505b509250505060405180910390fd5b508173__RockPaperScissorsState________________634c291ecd90916040518263ffffffff167c01000000000000000000000000000000000000000000000000000000000281526004018080602001828103825283818151815260200191508051906020019080838360005b838110156152d55780820151818401526020810190506152ba565b50505050905090810190601f1680156153025780820380516001836020036101000a031916815260200191505b509250505060206040518083038186803b15801561531f57600080fd5b505af4158015615333573d6000803e3d6000fd5b505050506040513d602081101561534957600080fd5b81019080805190602001909291905050508173__RockPaperScissorsState________________634c291ecd90916040518263ffffffff167c01000000000000000000000000000000000000000000000000000000000281526004018080602001828103825283818151815260200191508051906020019080838360005b838110156153e25780820151818401526020810190506153c7565b50505050905090810190601f16801561540f5780820380516001836020036101000a031916815260200191505b509250505060206040518083038186803b15801561542c57600080fd5b505af4158015615440573d6000803e3d6000fd5b505050506040513d602081101561545657600080fd5b810190808051906020019092919050505014606060405190810160405280603c81526020017f546865207265736f6c7574696f6e20666f7220706c617965722041206d75737481526020017f206265207468652073616d65206265747765656e207374617465732e0000000081525090151561556d576040517f08c379a00000000000000000000000000000000000000000000000000000000081526004018080602001828103825283818151815260200191508051906020019080838360005b83811015615532578082015181840152602081019050615517565b50505050905090810190601f16801561555f5780820380516001836020036101000a031916815260200191505b509250505060405180910390fd5b508173__RockPaperScissorsState________________634e77b06390916040518263ffffffff167c01000000000000000000000000000000000000000000000000000000000281526004018080602001828103825283818151815260200191508051906020019080838360005b838110156155f65780820151818401526020810190506155db565b50505050905090810190601f1680156156235780820380516001836020036101000a031916815260200191505b509250505060206040518083038186803b15801561564057600080fd5b505af4158015615654573d6000803e3d6000fd5b505050506040513d602081101561566a57600080fd5b81019080805190602001909291905050508173__RockPaperScissorsState________________634e77b06390916040518263ffffffff167c01000000000000000000000000000000000000000000000000000000000281526004018080602001828103825283818151815260200191508051906020019080838360005b838110156157035780820151818401526020810190506156e8565b50505050905090810190601f1680156157305780820380516001836020036101000a031916815260200191505b509250505060206040518083038186803b15801561574d57600080fd5b505af4158015615761573d6000803e3d6000fd5b505050506040513d602081101561577757600080fd5b810190808051906020019092919050505014606060405190810160405280603c81526020017f546865207265736f6c7574696f6e20666f7220706c617965722042206d75737481526020017f206265207468652073616d65206265747765656e207374617465732e0000000081525090151561588e576040517f08c379a00000000000000000000000000000000000000000000000000000000081526004018080602001828103825283818151815260200191508051906020019080838360005b83811015615853578082015181840152602081019050615838565b50505050905090810190601f1680156158805780820380516001836020036101000a031916815260200191505b509250505060405180910390fd5b505050565b6000808360028111156158a257fe5b8560028111156158ae57fe5b14156158bf5782839150915061593f565b600060028111156158cc57fe5b8560028111156158d857fe5b1480156158fa57506002808111156158ec57fe5b8460028111156158f857fe5b145b8061591a575083600281111561590c57fe5b85600281111561591857fe5b115b15615931578260020260008090509150915061593f565b600083600202819150915091505b9350939150505600a165627a7a72305820001ead8d7948c8624a11001c089d6eb376e6cd39aa5eb55c0488e0f757b34dd50029",
  "source": "pragma solidity ^0.4.18;\n\nimport \"fmg-core/contracts/State.sol\";\nimport \"./RockPaperScissorsState.sol\";\n\ncontract RockPaperScissorsGame {\n    using RockPaperScissorsState for bytes;\n    string constant RESOLUTION_A_SAME = \"The resolution for player A must be the same between states.\";\n    string constant RESOLUTION_B_SAME = \"The resolution for player B must be the same between states.\";\n    string constant INTEGER_OVERFLOW_PREVENT = \"Preventing a integer overflow attack\";\n    string constant SAME_STAKE = \"The stake should be the same between states\";\n\n    // The following transitions are allowed:\n    //\n    // Start -> RoundProposed\n    // RoundProposed -> Start // reject game\n    // RoundProposed -> RoundAccepted\n    // RoundAccepted -> Reveal\n    // Reveal -> Start\n    // Start -> Concluded\n    //\n    function validTransition(bytes _old, bytes _new) public pure returns (bool) {\n        if (_old.positionType() == RockPaperScissorsState.PositionType.Start) {\n            if (_new.positionType() == RockPaperScissorsState.PositionType.RoundProposed) {\n                validateStartToRoundProposed(_old, _new);\n\n                return true;\n            } else if (_new.positionType() == RockPaperScissorsState.PositionType.Concluded) {\n                validateStartToConcluded(_old, _new);\n\n                return true;\n            }\n        } else if (_old.positionType() == RockPaperScissorsState.PositionType.RoundProposed) {\n            if (_new.positionType() == RockPaperScissorsState.PositionType.Start) { // game rejected\n                validateRoundProposedToRejected(_old, _new);\n\n                return true;\n            } else if (_new.positionType() == RockPaperScissorsState.PositionType.RoundAccepted) {\n                validateRoundProposedToRoundAccepted(_old, _new);\n\n                return true;\n            }\n        } else if (_old.positionType() == RockPaperScissorsState.PositionType.RoundAccepted) {\n            if (_new.positionType() == RockPaperScissorsState.PositionType.Reveal) {\n                validateRoundAcceptedToReveal(_old, _new);\n\n                return true;\n            }\n        } else if (_old.positionType() == RockPaperScissorsState.PositionType.Reveal) {\n            if (_new.positionType() == RockPaperScissorsState.PositionType.Start) {\n                validateRevealToStart(_old, _new);\n\n                return true;\n            }\n        }\n\n        revert(\"No valid transition found for states\");\n    }\n\n    function winnings(RockPaperScissorsState.Play firstPlay, RockPaperScissorsState.Play secondPlay, uint256 stake)\n    private pure returns (uint256, uint256) {\n        if (firstPlay == secondPlay) { // no-one won\n            return (stake, stake);\n        } else if ((firstPlay == RockPaperScissorsState.Play.Rock && secondPlay == RockPaperScissorsState.Play.Scissors) ||\n                  (firstPlay > secondPlay)) { // first player won\n            return (2 * stake, 0);\n        } else { // second player won\n            return (0, 2 * stake);\n        }\n    }\n\n    // transition validations\n    function validateStartToRoundProposed(bytes _old, bytes _new) private pure {\n        require(_new.stake() == _old.stake());\n        require(_old.aResolution() >= _new.stake(),INTEGER_OVERFLOW_PREVENT); // avoid integer overflow attacks\n        require(_old.bResolution() >= _new.stake(),INTEGER_OVERFLOW_PREVENT); // avoid integer overflow attacks\n        require(_new.aResolution() == _old.aResolution(),RESOLUTION_A_SAME); // resolution unchanged\n        require(_new.bResolution() == _old.bResolution(),RESOLUTION_B_SAME); // resolution unchanged\n\n        // we should maybe require that aPreCommit isn't empty, but then it will only hurt a later if it is\n    }\n\n    function validateStartToConcluded(bytes _old, bytes _new) private pure {\n        require(_new.stake() == _old.stake());\n        require(_new.aResolution() == _old.aResolution(),RESOLUTION_A_SAME);\n        require(_new.bResolution() == _old.bResolution(), RESOLUTION_B_SAME);\n    }\n\n    function validateRoundProposedToRejected(bytes _old, bytes _new) private pure {\n        require(_new.stake() == _old.stake());\n        require(_new.aResolution() == _old.aResolution(),RESOLUTION_A_SAME); // resolution unchanged\n        require(_new.bResolution() == _old.bResolution(),RESOLUTION_B_SAME); // resolution unchanged\n    }\n\n    function validateRoundProposedToRoundAccepted(bytes _old, bytes _new) private pure {\n        // a will have to reveal, so remove the stake beforehand\n        require(_new.aResolution() == _old.aResolution() - _old.stake(),\"Resolution for player A should be decremented by 1 stake from the previous state.\");\n        require(_new.bResolution() == _old.bResolution() + _old.stake(),\"Resolution for player B should be incremented by 1 stake from the previous state.\");\n        require(_new.stake() == _old.stake(),SAME_STAKE);\n        require(_new.preCommit() == _old.preCommit(),\"Precommit should be the same as the previous state.\");\n    }\n\n    function validateRoundAcceptedToReveal(bytes _old, bytes _new) private pure {\n        uint256 aWinnings;\n        uint256 bWinnings;\n\n        require(_new.stake() == _old.stake(),SAME_STAKE);\n        require(_new.bPlay() == _old.bPlay(),\"Player Bs play should be the same between states.\");\n\n        // check hash matches\n        // need to convert Play -> uint256 to get hash to work\n        bytes32 hashed = keccak256(abi.encodePacked(uint256(_new.aPlay()), _new.salt()));\n        require(hashed == _old.preCommit(),\"The hash needs to match the precommit\");\n\n        // calculate winnings\n        (aWinnings, bWinnings) = winnings(_new.aPlay(), _new.bPlay(), _new.stake());\n\n        require(_new.aResolution() == _old.aResolution() + aWinnings,\"Player A's resolution should be updated with the winning\");\n        require(_new.bResolution() == _old.bResolution() - 2 * _old.stake() + bWinnings,\"Player B's resolution should be updated with the winning\");\n    }\n\n    function validateRevealToStart(bytes _old, bytes _new) private pure {\n        require(_new.stake() == _old.stake(),SAME_STAKE);\n        require(_new.aResolution() == _old.aResolution(),RESOLUTION_A_SAME);\n        require(_new.bResolution() == _old.bResolution(),RESOLUTION_B_SAME);\n    }\n}\n",
  "sourcePath": "/Users/alexgap/code/rps-poc/packages/rps-app/contracts/RockPaperScissorsGame.sol",
  "compiler": {
    "name": "solc",
    "version": "0.4.24+commit.e67f0147.Emscripten.clang"
  },
  "schemaVersion": "3.0.1",
  "updatedAt": "2019-01-08T21:55:55.258Z",
  "devdoc": {
    "methods": {}
  },
  "userdoc": {
    "methods": {}
  }
}