{
  "contractName": "Rules",
  "abi": [
    {
      "constant": true,
      "inputs": [
        {
          "name": "_fromState",
          "type": "bytes"
        },
        {
          "name": "_toState",
          "type": "bytes"
        },
        {
          "name": "v",
          "type": "uint8[]"
        },
        {
          "name": "r",
          "type": "bytes32[]"
        },
        {
          "name": "s",
          "type": "bytes32[]"
        }
      ],
      "name": "validForceMove",
      "outputs": [
        {
          "name": "",
          "type": "bool"
        }
      ],
      "payable": false,
      "stateMutability": "pure",
      "type": "function"
    },
    {
      "constant": true,
      "inputs": [
        {
          "name": "_fromState",
          "type": "bytes"
        },
        {
          "name": "_toState",
          "type": "bytes"
        },
        {
          "name": "v",
          "type": "uint8[]"
        },
        {
          "name": "r",
          "type": "bytes32[]"
        },
        {
          "name": "s",
          "type": "bytes32[]"
        }
      ],
      "name": "validConclusionProof",
      "outputs": [
        {
          "name": "",
          "type": "bool"
        }
      ],
      "payable": false,
      "stateMutability": "pure",
      "type": "function"
    },
    {
      "constant": true,
      "inputs": [
        {
          "name": "_challengeState",
          "type": "bytes"
        },
        {
          "name": "_refutationState",
          "type": "bytes"
        },
        {
          "name": "v",
          "type": "uint8"
        },
        {
          "name": "r",
          "type": "bytes32"
        },
        {
          "name": "s",
          "type": "bytes32"
        }
      ],
      "name": "validRefute",
      "outputs": [
        {
          "name": "",
          "type": "bool"
        }
      ],
      "payable": false,
      "stateMutability": "pure",
      "type": "function"
    },
    {
      "constant": true,
      "inputs": [
        {
          "name": "_challengeState",
          "type": "bytes"
        },
        {
          "name": "_nextState",
          "type": "bytes"
        },
        {
          "name": "v",
          "type": "uint8"
        },
        {
          "name": "r",
          "type": "bytes32"
        },
        {
          "name": "s",
          "type": "bytes32"
        }
      ],
      "name": "validRespondWithMove",
      "outputs": [
        {
          "name": "",
          "type": "bool"
        }
      ],
      "payable": false,
      "stateMutability": "pure",
      "type": "function"
    },
    {
      "constant": true,
      "inputs": [
        {
          "name": "_challengeState",
          "type": "bytes"
        },
        {
          "name": "_alternativeState",
          "type": "bytes"
        },
        {
          "name": "_nextState",
          "type": "bytes"
        },
        {
          "name": "v",
          "type": "uint8[]"
        },
        {
          "name": "r",
          "type": "bytes32[]"
        },
        {
          "name": "s",
          "type": "bytes32[]"
        }
      ],
      "name": "validAlternativeRespondWithMove",
      "outputs": [
        {
          "name": "",
          "type": "bool"
        }
      ],
      "payable": false,
      "stateMutability": "pure",
      "type": "function"
    },
    {
      "constant": true,
      "inputs": [
        {
          "name": "_fromState",
          "type": "bytes"
        },
        {
          "name": "_toState",
          "type": "bytes"
        }
      ],
      "name": "validTransition",
      "outputs": [
        {
          "name": "",
          "type": "bool"
        }
      ],
      "payable": false,
      "stateMutability": "pure",
      "type": "function"
    },
    {
      "constant": true,
      "inputs": [
        {
          "name": "_fromState",
          "type": "bytes"
        },
        {
          "name": "_toState",
          "type": "bytes"
        }
      ],
      "name": "validTransitionFromPreFundSetup",
      "outputs": [
        {
          "name": "",
          "type": "bool"
        }
      ],
      "payable": false,
      "stateMutability": "pure",
      "type": "function"
    },
    {
      "constant": true,
      "inputs": [
        {
          "name": "_fromState",
          "type": "bytes"
        },
        {
          "name": "_toState",
          "type": "bytes"
        }
      ],
      "name": "validTransitionFromPostFundSetup",
      "outputs": [
        {
          "name": "",
          "type": "bool"
        }
      ],
      "payable": false,
      "stateMutability": "pure",
      "type": "function"
    },
    {
      "constant": true,
      "inputs": [
        {
          "name": "_fromState",
          "type": "bytes"
        },
        {
          "name": "_toState",
          "type": "bytes"
        }
      ],
      "name": "validTransitionFromGame",
      "outputs": [
        {
          "name": "",
          "type": "bool"
        }
      ],
      "payable": false,
      "stateMutability": "pure",
      "type": "function"
    },
    {
      "constant": true,
      "inputs": [
        {
          "name": "_fromState",
          "type": "bytes"
        },
        {
          "name": "_toState",
          "type": "bytes"
        }
      ],
      "name": "validTransitionFromConclude",
      "outputs": [
        {
          "name": "",
          "type": "bool"
        }
      ],
      "payable": false,
      "stateMutability": "pure",
      "type": "function"
    }
  ],
  "bytecode": "0x61525062000031600b82828239805160001a6073146000811461002157610023565bfe5b5030600052607381538281f30073000000000000000000000000000000000000000030146080604052600436106100bb576000357c0100000000000000000000000000000000000000000000000000000000900463ffffffff16806351d6d794146100c057806359b3fb49146102435780638620e3c0146103265780639207bf96146103e05780639babb7a41461049a578063a483eb1d14610554578063d997535f1461071d578063ded9dba9146108a0578063df91ac411461095a578063f788ea1814610a14575b600080fd5b610229600480360381019080803590602001908201803590602001908080601f0160208091040260200160405190810160405280939291908181526020018383808284378201915050505050509192919290803590602001908201803590602001908080601f0160208091040260200160405190810160405280939291908181526020018383808284378201915050505050509192919290803590602001908201803590602001908080602002602001604051908101604052809392919081815260200183836020028082843782019150505050505091929192908035906020019082018035906020019080806020026020016040519081016040528093929190818152602001838360200280828437820191505050505050919291929080359060200190820180359060200190808060200260200160405190810160405280939291908181526020018383602002808284378201915050505050509192919290505050610af7565b604051808215151515815260200191505060405180910390f35b61030c600480360381019080803590602001908201803590602001908080601f0160208091040260200160405190810160405280939291908181526020018383808284378201915050505050509192919290803590602001908201803590602001908080601f0160208091040260200160405190810160405280939291908181526020018383808284378201915050505050509192919290803560ff16906020019092919080356000191690602001909291908035600019169060200190929190505050610efe565b604051808215151515815260200191505060405180910390f35b6103c6600480360381019080803590602001908201803590602001908080601f0160208091040260200160405190810160405280939291908181526020018383808284378201915050505050509192919290803590602001908201803590602001908080601f016020809104026020016040519081016040528093929190818152602001838380828437820191505050505050919291929050505061103a565b604051808215151515815260200191505060405180910390f35b610480600480360381019080803590602001908201803590602001908080601f0160208091040260200160405190810160405280939291908181526020018383808284378201915050505050509192919290803590602001908201803590602001908080601f01602080910402602001604051908101604052809392919081815260200183838082843782019150505050505091929192905050506112f9565b604051808215151515815260200191505060405180910390f35b61053a600480360381019080803590602001908201803590602001908080601f0160208091040260200160405190810160405280939291908181526020018383808284378201915050505050509192919290803590602001908201803590602001908080601f0160208091040260200160405190810160405280939291908181526020018383808284378201915050505050509192919290505050611c4c565b604051808215151515815260200191505060405180910390f35b610703600480360381019080803590602001908201803590602001908080601f0160208091040260200160405190810160405280939291908181526020018383808284378201915050505050509192919290803590602001908201803590602001908080601f0160208091040260200160405190810160405280939291908181526020018383808284378201915050505050509192919290803590602001908201803590602001908080601f01602080910402602001604051908101604052809392919081815260200183838082843782019150505050505091929192908035906020019082018035906020019080806020026020016040519081016040528093929190818152602001838360200280828437820191505050505050919291929080359060200190820180359060200190808060200260200160405190810160405280939291908181526020018383602002808284378201915050505050509192919290803590602001908201803590602001908080602002602001604051908101604052809392919081815260200183836020028082843782019150505050505091929192905050506122cf565b604051808215151515815260200191505060405180910390f35b610886600480360381019080803590602001908201803590602001908080601f0160208091040260200160405190810160405280939291908181526020018383808284378201915050505050509192919290803590602001908201803590602001908080601f0160208091040260200160405190810160405280939291908181526020018383808284378201915050505050509192919290803590602001908201803590602001908080602002602001604051908101604052809392919081815260200183836020028082843782019150505050505091929192908035906020019082018035906020019080806020026020016040519081016040528093929190818152602001838360200280828437820191505050505050919291929080359060200190820180359060200190808060200260200160405190810160405280939291908181526020018383602002808284378201915050505050509192919290505050612a08565b604051808215151515815260200191505060405180910390f35b610940600480360381019080803590602001908201803590602001908080601f0160208091040260200160405190810160405280939291908181526020018383808284378201915050505050509192919290803590602001908201803590602001908080601f0160208091040260200160405190810160405280939291908181526020018383808284378201915050505050509192919290505050612cdf565b604051808215151515815260200191505060405180910390f35b6109fa600480360381019080803590602001908201803590602001908080601f0160208091040260200160405190810160405280939291908181526020018383808284378201915050505050509192919290803590602001908201803590602001908080601f0160208091040260200160405190810160405280939291908181526020018383808284378201915050505050509192919290505050613d79565b604051808215151515815260200191505060405180910390f35b610add600480360381019080803590602001908201803590602001908080601f0160208091040260200160405190810160405280939291908181526020018383808284378201915050505050509192919290803590602001908201803590602001908080601f0160208091040260200160405190810160405280939291908181526020018383808284378201915050505050509192919290803560ff16906020019092919080356000191690602001909291908035600019169060200190929190505050614c85565b604051808215151515815260200191505060405180910390f35b60008573__State_________________________________63ce4338e29091866000815181101515610b2557fe5b90602001906020020151866000815181101515610b3e57fe5b90602001906020020151866000815181101515610b5757fe5b906020019060200201516040518563ffffffff167c010000000000000000000000000000000000000000000000000000000002815260040180806020018560ff1660ff16815260200184600019166000191681526020018360001916600019168152602001828103825286818151815260200191508051906020019080838360005b83811015610bf4578082015181840152602081019050610bd9565b50505050905090810190601f168015610c215780820380516001836020036101000a031916815260200191505b509550505050505060006040518083038186803b158015610c4157600080fd5b505af4158015610c55573d6000803e3d6000fd5b505050508473__State_________________________________63ce4338e29091866001815181101515610c8557fe5b90602001906020020151866001815181101515610c9e57fe5b90602001906020020151866001815181101515610cb757fe5b906020019060200201516040518563ffffffff167c010000000000000000000000000000000000000000000000000000000002815260040180806020018560ff1660ff16815260200184600019166000191681526020018360001916600019168152602001828103825286818151815260200191508051906020019080838360005b83811015610d54578082015181840152602081019050610d39565b50505050905090810190601f168015610d815780820380516001836020036101000a031916815260200191505b509550505050505060006040518083038186803b158015610da157600080fd5b505af4158015610db5573d6000803e3d6000fd5b50505050600380811115610dc557fe5b8673__State_________________________________63b28400c290916040518263ffffffff167c01000000000000000000000000000000000000000000000000000000000281526004018080602001828103825283818151815260200191508051906020019080838360005b83811015610e4d578082015181840152602081019050610e32565b50505050905090810190601f168015610e7a5780820380516001836020036101000a031916815260200191505b509250505060206040518083038186803b158015610e9757600080fd5b505af4158015610eab573d6000803e3d6000fd5b505050506040513d6020811015610ec157600080fd5b81019080805190602001909291905050506003811115610edd57fe5b141515610ee957600080fd5b610ef386866112f9565b905095945050505050565b60008473__State_________________________________63ce4338e290918686866040518563ffffffff167c010000000000000000000000000000000000000000000000000000000002815260040180806020018560ff1660ff16815260200184600019166000191681526020018360001916600019168152602001828103825286818151815260200191508051906020019080838360005b83811015610fb3578082015181840152602081019050610f98565b50505050905090810190601f168015610fe05780820380516001836020036101000a031916815260200191505b509550505050505060006040518083038186803b15801561100057600080fd5b505af4158015611014573d6000803e3d6000fd5b5050505061102286866112f9565b151561102d57600080fd5b6001905095945050505050565b600060038081111561104857fe5b8273__State_________________________________63b28400c290916040518263ffffffff167c01000000000000000000000000000000000000000000000000000000000281526004018080602001828103825283818151815260200191508051906020019080838360005b838110156110d05780820151818401526020810190506110b5565b50505050905090810190601f1680156110fd5780820380516001836020036101000a031916815260200191505b509250505060206040518083038186803b15801561111a57600080fd5b505af415801561112e573d6000803e3d6000fd5b505050506040513d602081101561114457600080fd5b8101908080519060200190929190505050600381111561116057fe5b14151561116c57600080fd5b73__State_________________________________63b53430ee84846040518363ffffffff167c0100000000000000000000000000000000000000000000000000000000028152600401808060200180602001838103835285818151815260200191508051906020019080838360005b838110156111f75780820151818401526020810190506111dc565b50505050905090810190601f1680156112245780820380516001836020036101000a031916815260200191505b50838103825284818151815260200191508051906020019080838360005b8381101561125d578082015181840152602081019050611242565b50505050905090810190601f16801561128a5780820380516001836020036101000a031916815260200191505b5094505050505060206040518083038186803b1580156112a957600080fd5b505af41580156112bd573d6000803e3d6000fd5b505050506040513d60208110156112d357600080fd5b810190808051906020019092919050505015156112ef57600080fd5b6001905092915050565b60008273__State_________________________________639c0717e390916040518263ffffffff167c01000000000000000000000000000000000000000000000000000000000281526004018080602001828103825283818151815260200191508051906020019080838360005b83811015611383578082015181840152602081019050611368565b50505050905090810190601f1680156113b05780820380516001836020036101000a031916815260200191505b509250505060206040518083038186803b1580156113cd57600080fd5b505af41580156113e1573d6000803e3d6000fd5b505050506040513d60208110156113f757600080fd5b8101908080519060200190929190505050600019168273__State_________________________________639c0717e390916040518263ffffffff167c01000000000000000000000000000000000000000000000000000000000281526004018080602001828103825283818151815260200191508051906020019080838360005b83811015611494578082015181840152602081019050611479565b50505050905090810190601f1680156114c15780820380516001836020036101000a031916815260200191505b509250505060206040518083038186803b1580156114de57600080fd5b505af41580156114f2573d6000803e3d6000fd5b505050506040513d602081101561150857600080fd5b81019080805190602001909291905050506000191614151561152957600080fd5b60018373__State_________________________________63c084ac8d90916040518263ffffffff167c01000000000000000000000000000000000000000000000000000000000281526004018080602001828103825283818151815260200191508051906020019080838360005b838110156115b3578082015181840152602081019050611598565b50505050905090810190601f1680156115e05780820380516001836020036101000a031916815260200191505b509250505060206040518083038186803b1580156115fd57600080fd5b505af4158015611611573d6000803e3d6000fd5b505050506040513d602081101561162757600080fd5b8101908080519060200190929190505050018273__State_________________________________63c084ac8d90916040518263ffffffff167c01000000000000000000000000000000000000000000000000000000000281526004018080602001828103825283818151815260200191508051906020019080838360005b838110156116c15780820151818401526020810190506116a6565b50505050905090810190601f1680156116ee5780820380516001836020036101000a031916815260200191505b509250505060206040518083038186803b15801561170b57600080fd5b505af415801561171f573d6000803e3d6000fd5b505050506040513d602081101561173557600080fd5b810190808051906020019092919050505014151561175257600080fd5b6000600381111561175f57fe5b8373__State_________________________________63b28400c290916040518263ffffffff167c01000000000000000000000000000000000000000000000000000000000281526004018080602001828103825283818151815260200191508051906020019080838360005b838110156117e75780820151818401526020810190506117cc565b50505050905090810190601f1680156118145780820380516001836020036101000a031916815260200191505b509250505060206040518083038186803b15801561183157600080fd5b505af4158015611845573d6000803e3d6000fd5b505050506040513d602081101561185b57600080fd5b8101908080519060200190929190505050600381111561187757fe5b141561188e576118878383612cdf565b9050611c46565b6001600381111561189b57fe5b8373__State_________________________________63b28400c290916040518263ffffffff167c01000000000000000000000000000000000000000000000000000000000281526004018080602001828103825283818151815260200191508051906020019080838360005b83811015611923578082015181840152602081019050611908565b50505050905090810190601f1680156119505780820380516001836020036101000a031916815260200191505b509250505060206040518083038186803b15801561196d57600080fd5b505af4158015611981573d6000803e3d6000fd5b505050506040513d602081101561199757600080fd5b810190808051906020019092919050505060038111156119b357fe5b14156119ca576119c38383613d79565b9050611c46565b600260038111156119d757fe5b8373__State_________________________________63b28400c290916040518263ffffffff167c01000000000000000000000000000000000000000000000000000000000281526004018080602001828103825283818151815260200191508051906020019080838360005b83811015611a5f578082015181840152602081019050611a44565b50505050905090810190601f168015611a8c5780820380516001836020036101000a031916815260200191505b509250505060206040518083038186803b158015611aa957600080fd5b505af4158015611abd573d6000803e3d6000fd5b505050506040513d6020811015611ad357600080fd5b81019080805190602001909291905050506003811115611aef57fe5b1415611b0657611aff8383611c4c565b9050611c46565b600380811115611b1257fe5b8373__State_________________________________63b28400c290916040518263ffffffff167c01000000000000000000000000000000000000000000000000000000000281526004018080602001828103825283818151815260200191508051906020019080838360005b83811015611b9a578082015181840152602081019050611b7f565b50505050905090810190601f168015611bc75780820380516001836020036101000a031916815260200191505b509250505060206040518083038186803b158015611be457600080fd5b505af4158015611bf8573d6000803e3d6000fd5b505050506040513d6020811015611c0e57600080fd5b81019080805190602001909291905050506003811115611c2a57fe5b1415611c4157611c3a838361103a565b9050611c46565b600190505b92915050565b600060026003811115611c5b57fe5b8273__State_________________________________63b28400c290916040518263ffffffff167c01000000000000000000000000000000000000000000000000000000000281526004018080602001828103825283818151815260200191508051906020019080838360005b83811015611ce3578082015181840152602081019050611cc8565b50505050905090810190601f168015611d105780820380516001836020036101000a031916815260200191505b509250505060206040518083038186803b158015611d2d57600080fd5b505af4158015611d41573d6000803e3d6000fd5b505050506040513d6020811015611d5757600080fd5b81019080805190602001909291905050506003811115611d7357fe5b1415612011578273__State_________________________________633d5151fa90916040518263ffffffff167c01000000000000000000000000000000000000000000000000000000000281526004018080602001828103825283818151815260200191508051906020019080838360005b83811015611e01578082015181840152602081019050611de6565b50505050905090810190601f168015611e2e5780820380516001836020036101000a031916815260200191505b509250505060206040518083038186803b158015611e4b57600080fd5b505af4158015611e5f573d6000803e3d6000fd5b505050506040513d6020811015611e7557600080fd5b810190808051906020019092919050505073ffffffffffffffffffffffffffffffffffffffff16639207bf9684846040518363ffffffff167c0100000000000000000000000000000000000000000000000000000000028152600401808060200180602001838103835285818151815260200191508051906020019080838360005b83811015611f12578082015181840152602081019050611ef7565b50505050905090810190601f168015611f3f5780820380516001836020036101000a031916815260200191505b50838103825284818151815260200191508051906020019080838360005b83811015611f78578082015181840152602081019050611f5d565b50505050905090810190601f168015611fa55780820380516001836020036101000a031916815260200191505b50945050505050602060405180830381600087803b158015611fc657600080fd5b505af1158015611fda573d6000803e3d6000fd5b505050506040513d6020811015611ff057600080fd5b8101908080519060200190929190505050151561200c57600080fd5b6122c5565b60038081111561201d57fe5b8273__State_________________________________63b28400c290916040518263ffffffff167c01000000000000000000000000000000000000000000000000000000000281526004018080602001828103825283818151815260200191508051906020019080838360005b838110156120a557808201518184015260208101905061208a565b50505050905090810190601f1680156120d25780820380516001836020036101000a031916815260200191505b509250505060206040518083038186803b1580156120ef57600080fd5b505af4158015612103573d6000803e3d6000fd5b505050506040513d602081101561211957600080fd5b8101908080519060200190929190505050600381111561213557fe5b14151561214157600080fd5b73__State_________________________________63b53430ee84846040518363ffffffff167c0100000000000000000000000000000000000000000000000000000000028152600401808060200180602001838103835285818151815260200191508051906020019080838360005b838110156121cc5780820151818401526020810190506121b1565b50505050905090810190601f1680156121f95780820380516001836020036101000a031916815260200191505b50838103825284818151815260200191508051906020019080838360005b83811015612232578082015181840152602081019050612217565b50505050905090810190601f16801561225f5780820380516001836020036101000a031916815260200191505b5094505050505060206040518083038186803b15801561227e57600080fd5b505af4158015612292573d6000803e3d6000fd5b505050506040513d60208110156122a857600080fd5b810190808051906020019092919050505015156122c457600080fd5b5b6001905092915050565b60008573__State_________________________________639c0717e390916040518263ffffffff167c01000000000000000000000000000000000000000000000000000000000281526004018080602001828103825283818151815260200191508051906020019080838360005b8381101561235957808201518184015260208101905061233e565b50505050905090810190601f1680156123865780820380516001836020036101000a031916815260200191505b509250505060206040518083038186803b1580156123a357600080fd5b505af41580156123b7573d6000803e3d6000fd5b505050506040513d60208110156123cd57600080fd5b8101908080519060200190929190505050600019168773__State_________________________________639c0717e390916040518263ffffffff167c01000000000000000000000000000000000000000000000000000000000281526004018080602001828103825283818151815260200191508051906020019080838360005b8381101561246a57808201518184015260208101905061244f565b50505050905090810190601f1680156124975780820380516001836020036101000a031916815260200191505b509250505060206040518083038186803b1580156124b457600080fd5b505af41580156124c8573d6000803e3d6000fd5b505050506040513d60208110156124de57600080fd5b8101908080519060200190929190505050600019161415156124ff57600080fd5b8573__State_________________________________63c084ac8d90916040518263ffffffff167c01000000000000000000000000000000000000000000000000000000000281526004018080602001828103825283818151815260200191508051906020019080838360005b8381101561258757808201518184015260208101905061256c565b50505050905090810190601f1680156125b45780820380516001836020036101000a031916815260200191505b509250505060206040518083038186803b1580156125d157600080fd5b505af41580156125e5573d6000803e3d6000fd5b505050506040513d60208110156125fb57600080fd5b81019080805190602001909291905050508773__State_________________________________63c084ac8d90916040518263ffffffff167c01000000000000000000000000000000000000000000000000000000000281526004018080602001828103825283818151815260200191508051906020019080838360005b83811015612694578082015181840152602081019050612679565b50505050905090810190601f1680156126c15780820380516001836020036101000a031916815260200191505b509250505060206040518083038186803b1580156126de57600080fd5b505af41580156126f2573d6000803e3d6000fd5b505050506040513d602081101561270857600080fd5b810190808051906020019092919050505014151561272557600080fd5b8573__State_________________________________63ce4338e2909186600081518110151561275157fe5b9060200190602002015186600081518110151561276a57fe5b9060200190602002015186600081518110151561278357fe5b906020019060200201516040518563ffffffff167c010000000000000000000000000000000000000000000000000000000002815260040180806020018560ff1660ff16815260200184600019166000191681526020018360001916600019168152602001828103825286818151815260200191508051906020019080838360005b83811015612820578082015181840152602081019050612805565b50505050905090810190601f16801561284d5780820380516001836020036101000a031916815260200191505b509550505050505060006040518083038186803b15801561286d57600080fd5b505af4158015612881573d6000803e3d6000fd5b505050508473__State_________________________________63ce4338e290918660018151811015156128b157fe5b906020019060200201518660018151811015156128ca57fe5b906020019060200201518660018151811015156128e357fe5b906020019060200201516040518563ffffffff167c010000000000000000000000000000000000000000000000000000000002815260040180806020018560ff1660ff16815260200184600019166000191681526020018360001916600019168152602001828103825286818151815260200191508051906020019080838360005b83811015612980578082015181840152602081019050612965565b50505050905090810190601f1680156129ad5780820380516001836020036101000a031916815260200191505b509550505050505060006040518083038186803b1580156129cd57600080fd5b505af41580156129e1573d6000803e3d6000fd5b505050506129ef86866112f9565b15156129fa57600080fd5b600190509695505050505050565b60008573__State_________________________________63ce4338e29091866000815181101515612a3657fe5b90602001906020020151866000815181101515612a4f57fe5b90602001906020020151866000815181101515612a6857fe5b906020019060200201516040518563ffffffff167c010000000000000000000000000000000000000000000000000000000002815260040180806020018560ff1660ff16815260200184600019166000191681526020018360001916600019168152602001828103825286818151815260200191508051906020019080838360005b83811015612b05578082015181840152602081019050612aea565b50505050905090810190601f168015612b325780820380516001836020036101000a031916815260200191505b509550505050505060006040518083038186803b158015612b5257600080fd5b505af4158015612b66573d6000803e3d6000fd5b505050508473__State_________________________________63ce4338e29091866001815181101515612b9657fe5b90602001906020020151866001815181101515612baf57fe5b90602001906020020151866001815181101515612bc857fe5b906020019060200201516040518563ffffffff167c010000000000000000000000000000000000000000000000000000000002815260040180806020018560ff1660ff16815260200184600019166000191681526020018360001916600019168152602001828103825286818151815260200191508051906020019080838360005b83811015612c65578082015181840152602081019050612c4a565b50505050905090810190601f168015612c925780820380516001836020036101000a031916815260200191505b509550505050505060006040518083038186803b158015612cb257600080fd5b505af4158015612cc6573d6000803e3d6000fd5b50505050612cd486866112f9565b905095945050505050565b600060018373__State_________________________________63f92bdcb190916040518263ffffffff167c01000000000000000000000000000000000000000000000000000000000281526004018080602001828103825283818151815260200191508051906020019080838360005b83811015612d6b578082015181840152602081019050612d50565b50505050905090810190601f168015612d985780820380516001836020036101000a031916815260200191505b509250505060206040518083038186803b158015612db557600080fd5b505af4158015612dc9573d6000803e3d6000fd5b505050506040513d6020811015612ddf57600080fd5b8101908080519060200190929190505050038373__State_________________________________63caabcf4a90916040518263ffffffff167c01000000000000000000000000000000000000000000000000000000000281526004018080602001828103825283818151815260200191508051906020019080838360005b83811015612e79578082015181840152602081019050612e5e565b50505050905090810190601f168015612ea65780820380516001836020036101000a031916815260200191505b509250505060206040518083038186803b158015612ec357600080fd5b505af4158015612ed7573d6000803e3d6000fd5b505050506040513d6020811015612eed57600080fd5b8101908080519060200190929190505050141561370e5760016003811115612f1157fe5b8273__State_________________________________63b28400c290916040518263ffffffff167c01000000000000000000000000000000000000000000000000000000000281526004018080602001828103825283818151815260200191508051906020019080838360005b83811015612f99578082015181840152602081019050612f7e565b50505050905090810190601f168015612fc65780820380516001836020036101000a031916815260200191505b509250505060206040518083038186803b158015612fe357600080fd5b505af4158015612ff7573d6000803e3d6000fd5b505050506040513d602081101561300d57600080fd5b8101908080519060200190929190505050600381111561302957fe5b14156134555760008273__State_________________________________63caabcf4a90916040518263ffffffff167c01000000000000000000000000000000000000000000000000000000000281526004018080602001828103825283818151815260200191508051906020019080838360005b838110156130b957808201518184015260208101905061309e565b50505050905090810190601f1680156130e65780820380516001836020036101000a031916815260200191505b509250505060206040518083038186803b15801561310357600080fd5b505af4158015613117573d6000803e3d6000fd5b505050506040513d602081101561312d57600080fd5b810190808051906020019092919050505014151561314a57600080fd5b73__State_________________________________639567151d84846040518363ffffffff167c0100000000000000000000000000000000000000000000000000000000028152600401808060200180602001838103835285818151815260200191508051906020019080838360005b838110156131d55780820151818401526020810190506131ba565b50505050905090810190601f1680156132025780820380516001836020036101000a031916815260200191505b50838103825284818151815260200191508051906020019080838360005b8381101561323b578082015181840152602081019050613220565b50505050905090810190601f1680156132685780820380516001836020036101000a031916815260200191505b5094505050505060206040518083038186803b15801561328757600080fd5b505af415801561329b573d6000803e3d6000fd5b505050506040513d60208110156132b157600080fd5b810190808051906020019092919050505015156132cd57600080fd5b73__State_________________________________63b53430ee84846040518363ffffffff167c0100000000000000000000000000000000000000000000000000000000028152600401808060200180602001838103835285818151815260200191508051906020019080838360005b8381101561335857808201518184015260208101905061333d565b50505050905090810190601f1680156133855780820380516001836020036101000a031916815260200191505b50838103825284818151815260200191508051906020019080838360005b838110156133be5780820151818401526020810190506133a3565b50505050905090810190601f1680156133eb5780820380516001836020036101000a031916815260200191505b5094505050505060206040518083038186803b15801561340a57600080fd5b505af415801561341e573d6000803e3d6000fd5b505050506040513d602081101561343457600080fd5b8101908080519060200190929190505050151561345057600080fd5b613709565b60038081111561346157fe5b8273__State_________________________________63b28400c290916040518263ffffffff167c01000000000000000000000000000000000000000000000000000000000281526004018080602001828103825283818151815260200191508051906020019080838360005b838110156134e95780820151818401526020810190506134ce565b50505050905090810190601f1680156135165780820380516001836020036101000a031916815260200191505b509250505060206040518083038186803b15801561353357600080fd5b505af4158015613547573d6000803e3d6000fd5b505050506040513d602081101561355d57600080fd5b8101908080519060200190929190505050600381111561357957fe5b14151561358557600080fd5b73__State_________________________________63b53430ee84846040518363ffffffff167c0100000000000000000000000000000000000000000000000000000000028152600401808060200180602001838103835285818151815260200191508051906020019080838360005b838110156136105780820151818401526020810190506135f5565b50505050905090810190601f16801561363d5780820380516001836020036101000a031916815260200191505b50838103825284818151815260200191508051906020019080838360005b8381101561367657808201518184015260208101905061365b565b50505050905090810190601f1680156136a35780820380516001836020036101000a031916815260200191505b5094505050505060206040518083038186803b1580156136c257600080fd5b505af41580156136d6573d6000803e3d6000fd5b505050506040513d60208110156136ec57600080fd5b8101908080519060200190929190505050151561370857600080fd5b5b613d6f565b6000600381111561371b57fe5b8273__State_________________________________63b28400c290916040518263ffffffff167c01000000000000000000000000000000000000000000000000000000000281526004018080602001828103825283818151815260200191508051906020019080838360005b838110156137a3578082015181840152602081019050613788565b50505050905090810190601f1680156137d05780820380516001836020036101000a031916815260200191505b509250505060206040518083038186803b1580156137ed57600080fd5b505af4158015613801573d6000803e3d6000fd5b505050506040513d602081101561381757600080fd5b8101908080519060200190929190505050600381111561383357fe5b14151561383f57600080fd5b73__State_________________________________639567151d84846040518363ffffffff167c0100000000000000000000000000000000000000000000000000000000028152600401808060200180602001838103835285818151815260200191508051906020019080838360005b838110156138ca5780820151818401526020810190506138af565b50505050905090810190601f1680156138f75780820380516001836020036101000a031916815260200191505b50838103825284818151815260200191508051906020019080838360005b83811015613930578082015181840152602081019050613915565b50505050905090810190601f16801561395d5780820380516001836020036101000a031916815260200191505b5094505050505060206040518083038186803b15801561397c57600080fd5b505af4158015613990573d6000803e3d6000fd5b505050506040513d60208110156139a657600080fd5b810190808051906020019092919050505015156139c257600080fd5b60018373__State_________________________________63caabcf4a90916040518263ffffffff167c01000000000000000000000000000000000000000000000000000000000281526004018080602001828103825283818151815260200191508051906020019080838360005b83811015613a4c578082015181840152602081019050613a31565b50505050905090810190601f168015613a795780820380516001836020036101000a031916815260200191505b509250505060206040518083038186803b158015613a9657600080fd5b505af4158015613aaa573d6000803e3d6000fd5b505050506040513d6020811015613ac057600080fd5b8101908080519060200190929190505050018273__State_________________________________63caabcf4a90916040518263ffffffff167c01000000000000000000000000000000000000000000000000000000000281526004018080602001828103825283818151815260200191508051906020019080838360005b83811015613b5a578082015181840152602081019050613b3f565b50505050905090810190601f168015613b875780820380516001836020036101000a031916815260200191505b509250505060206040518083038186803b158015613ba457600080fd5b505af4158015613bb8573d6000803e3d6000fd5b505050506040513d6020811015613bce57600080fd5b8101908080519060200190929190505050141515613beb57600080fd5b73__State_________________________________63b53430ee84846040518363ffffffff167c0100000000000000000000000000000000000000000000000000000000028152600401808060200180602001838103835285818151815260200191508051906020019080838360005b83811015613c76578082015181840152602081019050613c5b565b50505050905090810190601f168015613ca35780820380516001836020036101000a031916815260200191505b50838103825284818151815260200191508051906020019080838360005b83811015613cdc578082015181840152602081019050613cc1565b50505050905090810190601f168015613d095780820380516001836020036101000a031916815260200191505b5094505050505060206040518083038186803b158015613d2857600080fd5b505af4158015613d3c573d6000803e3d6000fd5b505050506040513d6020811015613d5257600080fd5b81019080805190602001909291905050501515613d6e57600080fd5b5b6001905092915050565b600060018373__State_________________________________63f92bdcb190916040518263ffffffff167c01000000000000000000000000000000000000000000000000000000000281526004018080602001828103825283818151815260200191508051906020019080838360005b83811015613e05578082015181840152602081019050613dea565b50505050905090810190601f168015613e325780820380516001836020036101000a031916815260200191505b509250505060206040518083038186803b158015613e4f57600080fd5b505af4158015613e63573d6000803e3d6000fd5b505050506040513d6020811015613e7957600080fd5b8101908080519060200190929190505050038373__State_________________________________63caabcf4a90916040518263ffffffff167c01000000000000000000000000000000000000000000000000000000000281526004018080602001828103825283818151815260200191508051906020019080838360005b83811015613f13578082015181840152602081019050613ef8565b50505050905090810190601f168015613f405780820380516001836020036101000a031916815260200191505b509250505060206040518083038186803b158015613f5d57600080fd5b505af4158015613f71573d6000803e3d6000fd5b505050506040513d6020811015613f8757600080fd5b810190808051906020019092919050505014156143675760026003811115613fab57fe5b8273__State_________________________________63b28400c290916040518263ffffffff167c01000000000000000000000000000000000000000000000000000000000281526004018080602001828103825283818151815260200191508051906020019080838360005b83811015614033578082015181840152602081019050614018565b50505050905090810190601f1680156140605780820380516001836020036101000a031916815260200191505b509250505060206040518083038186803b15801561407d57600080fd5b505af4158015614091573d6000803e3d6000fd5b505050506040513d60208110156140a757600080fd5b810190808051906020019092919050505060038111156140c357fe5b1415156140cf57600080fd5b8273__State_________________________________633d5151fa90916040518263ffffffff167c01000000000000000000000000000000000000000000000000000000000281526004018080602001828103825283818151815260200191508051906020019080838360005b8381101561415757808201518184015260208101905061413c565b50505050905090810190601f1680156141845780820380516001836020036101000a031916815260200191505b509250505060206040518083038186803b1580156141a157600080fd5b505af41580156141b5573d6000803e3d6000fd5b505050506040513d60208110156141cb57600080fd5b810190808051906020019092919050505073ffffffffffffffffffffffffffffffffffffffff16639207bf9684846040518363ffffffff167c0100000000000000000000000000000000000000000000000000000000028152600401808060200180602001838103835285818151815260200191508051906020019080838360005b8381101561426857808201518184015260208101905061424d565b50505050905090810190601f1680156142955780820380516001836020036101000a031916815260200191505b50838103825284818151815260200191508051906020019080838360005b838110156142ce5780820151818401526020810190506142b3565b50505050905090810190601f1680156142fb5780820380516001836020036101000a031916815260200191505b50945050505050602060405180830381600087803b15801561431c57600080fd5b505af1158015614330573d6000803e3d6000fd5b505050506040513d602081101561434657600080fd5b8101908080519060200190929190505050151561436257600080fd5b614c7b565b6001600381111561437457fe5b8273__State_________________________________63b28400c290916040518263ffffffff167c01000000000000000000000000000000000000000000000000000000000281526004018080602001828103825283818151815260200191508051906020019080838360005b838110156143fc5780820151818401526020810190506143e1565b50505050905090810190601f1680156144295780820380516001836020036101000a031916815260200191505b509250505060206040518083038186803b15801561444657600080fd5b505af415801561445a573d6000803e3d6000fd5b505050506040513d602081101561447057600080fd5b8101908080519060200190929190505050600381111561448c57fe5b14156149c65773__State_________________________________639567151d84846040518363ffffffff167c0100000000000000000000000000000000000000000000000000000000028152600401808060200180602001838103835285818151815260200191508051906020019080838360005b8381101561451d578082015181840152602081019050614502565b50505050905090810190601f16801561454a5780820380516001836020036101000a031916815260200191505b50838103825284818151815260200191508051906020019080838360005b83811015614583578082015181840152602081019050614568565b50505050905090810190601f1680156145b05780820380516001836020036101000a031916815260200191505b5094505050505060206040518083038186803b1580156145cf57600080fd5b505af41580156145e3573d6000803e3d6000fd5b505050506040513d60208110156145f957600080fd5b8101908080519060200190929190505050151561461557600080fd5b60018373__State_________________________________63caabcf4a90916040518263ffffffff167c01000000000000000000000000000000000000000000000000000000000281526004018080602001828103825283818151815260200191508051906020019080838360005b8381101561469f578082015181840152602081019050614684565b50505050905090810190601f1680156146cc5780820380516001836020036101000a031916815260200191505b509250505060206040518083038186803b1580156146e957600080fd5b505af41580156146fd573d6000803e3d6000fd5b505050506040513d602081101561471357600080fd5b8101908080519060200190929190505050018273__State_________________________________63caabcf4a90916040518263ffffffff167c01000000000000000000000000000000000000000000000000000000000281526004018080602001828103825283818151815260200191508051906020019080838360005b838110156147ad578082015181840152602081019050614792565b50505050905090810190601f1680156147da5780820380516001836020036101000a031916815260200191505b509250505060206040518083038186803b1580156147f757600080fd5b505af415801561480b573d6000803e3d6000fd5b505050506040513d602081101561482157600080fd5b810190808051906020019092919050505014151561483e57600080fd5b73__State_________________________________63b53430ee84846040518363ffffffff167c0100000000000000000000000000000000000000000000000000000000028152600401808060200180602001838103835285818151815260200191508051906020019080838360005b838110156148c95780820151818401526020810190506148ae565b50505050905090810190601f1680156148f65780820380516001836020036101000a031916815260200191505b50838103825284818151815260200191508051906020019080838360005b8381101561492f578082015181840152602081019050614914565b50505050905090810190601f16801561495c5780820380516001836020036101000a031916815260200191505b5094505050505060206040518083038186803b15801561497b57600080fd5b505af415801561498f573d6000803e3d6000fd5b505050506040513d60208110156149a557600080fd5b810190808051906020019092919050505015156149c157600080fd5b614c7a565b6003808111156149d257fe5b8273__State_________________________________63b28400c290916040518263ffffffff167c01000000000000000000000000000000000000000000000000000000000281526004018080602001828103825283818151815260200191508051906020019080838360005b83811015614a5a578082015181840152602081019050614a3f565b50505050905090810190601f168015614a875780820380516001836020036101000a031916815260200191505b509250505060206040518083038186803b158015614aa457600080fd5b505af4158015614ab8573d6000803e3d6000fd5b505050506040513d6020811015614ace57600080fd5b81019080805190602001909291905050506003811115614aea57fe5b141515614af657600080fd5b73__State_________________________________63b53430ee84846040518363ffffffff167c0100000000000000000000000000000000000000000000000000000000028152600401808060200180602001838103835285818151815260200191508051906020019080838360005b83811015614b81578082015181840152602081019050614b66565b50505050905090810190601f168015614bae5780820380516001836020036101000a031916815260200191505b50838103825284818151815260200191508051906020019080838360005b83811015614be7578082015181840152602081019050614bcc565b50505050905090810190601f168015614c145780820380516001836020036101000a031916815260200191505b5094505050505060206040518083038186803b158015614c3357600080fd5b505af4158015614c47573d6000803e3d6000fd5b505050506040513d6020811015614c5d57600080fd5b81019080805190602001909291905050501515614c7957600080fd5b5b5b6001905092915050565b60008573__State_________________________________63c084ac8d90916040518263ffffffff167c01000000000000000000000000000000000000000000000000000000000281526004018080602001828103825283818151815260200191508051906020019080838360005b83811015614d0f578082015181840152602081019050614cf4565b50505050905090810190601f168015614d3c5780820380516001836020036101000a031916815260200191505b509250505060206040518083038186803b158015614d5957600080fd5b505af4158015614d6d573d6000803e3d6000fd5b505050506040513d6020811015614d8357600080fd5b81019080805190602001909291905050508573__State_________________________________63c084ac8d90916040518263ffffffff167c01000000000000000000000000000000000000000000000000000000000281526004018080602001828103825283818151815260200191508051906020019080838360005b83811015614e1c578082015181840152602081019050614e01565b50505050905090810190601f168015614e495780820380516001836020036101000a031916815260200191505b509250505060206040518083038186803b158015614e6657600080fd5b505af4158015614e7a573d6000803e3d6000fd5b505050506040513d6020811015614e9057600080fd5b8101908080519060200190929190505050111515614ead57600080fd5b8573__State_________________________________6334e08cd790916040518263ffffffff167c01000000000000000000000000000000000000000000000000000000000281526004018080602001828103825283818151815260200191508051906020019080838360005b83811015614f35578082015181840152602081019050614f1a565b50505050905090810190601f168015614f625780820380516001836020036101000a031916815260200191505b509250505060206040518083038186803b158015614f7f57600080fd5b505af4158015614f93573d6000803e3d6000fd5b505050506040513d6020811015614fa957600080fd5b810190808051906020019092919050505073ffffffffffffffffffffffffffffffffffffffff168573__State_________________________________6334e08cd790916040518263ffffffff167c01000000000000000000000000000000000000000000000000000000000281526004018080602001828103825283818151815260200191508051906020019080838360005b8381101561505857808201518184015260208101905061503d565b50505050905090810190601f1680156150855780820380516001836020036101000a031916815260200191505b509250505060206040518083038186803b1580156150a257600080fd5b505af41580156150b6573d6000803e3d6000fd5b505050506040513d60208110156150cc57600080fd5b810190808051906020019092919050505073ffffffffffffffffffffffffffffffffffffffff161415156150ff57600080fd5b8473__State_________________________________63ce4338e290918686866040518563ffffffff167c010000000000000000000000000000000000000000000000000000000002815260040180806020018560ff1660ff16815260200184600019166000191681526020018360001916600019168152602001828103825286818151815260200191508051906020019080838360005b838110156151b2578082015181840152602081019050615197565b50505050905090810190601f1680156151df5780820380516001836020036101000a031916815260200191505b509550505050505060006040518083038186803b1580156151ff57600080fd5b505af4158015615213573d6000803e3d6000fd5b5050505060019050959450505050505600a165627a7a723058203207d52a55685be12b9e600001a1a93de3c1d98346002259aea3f685f08c70850029",
  "source": "pragma solidity ^0.4.23;\n\nimport \"./State.sol\";\nimport \"./ForceMoveGame.sol\";\n\nlibrary Rules {\n    using State for bytes;\n\n    struct Challenge {\n        bytes32 channelId;\n        bytes state;\n        uint32 expirationTime;\n        uint256[] payouts;\n    }\n\n    function validForceMove(\n        bytes _fromState,\n        bytes _toState,\n        uint8[] v,\n        bytes32[] r,\n        bytes32[] s\n    ) public pure returns (bool) {\n        // states must be signed by the appropriate participant\n        _fromState.requireSignature(v[0], r[0], s[0]);\n        _toState.requireSignature(v[1], r[1], s[1]);\n\n        return validTransition(_fromState, _toState);\n    }\n\n    function validConclusionProof(\n        bytes _fromState,\n        bytes _toState,\n        uint8[] v,\n        bytes32[] r,\n        bytes32[] s\n    ) public pure returns (bool) {\n        // states must be signed by the appropriate participant\n        _fromState.requireSignature(v[0], r[0], s[0]);\n        _toState.requireSignature(v[1], r[1], s[1]);\n\n        // first move must be a concluded state (transition rules will ensure this for the other states)\n        require(_fromState.stateType() == State.StateType.Conclude);\n        // must be a valid transition\n        return validTransition(_fromState, _toState);\n    }\n\n    function validRefute(\n        bytes _challengeState,\n        bytes _refutationState,\n        uint8 v,\n        bytes32 r,\n        bytes32 s\n    ) public pure returns (bool) {\n        // the refutationState must have a higher nonce\n        require(_refutationState.turnNum() > _challengeState.turnNum());\n        // ... with the same mover\n        require(_refutationState.mover() == _challengeState.mover());\n        // ... and be signed (by that mover)\n        _refutationState.requireSignature(v, r, s);\n\n        return true;\n    }\n\n    function validRespondWithMove(\n        bytes _challengeState,\n        bytes _nextState,\n        uint8 v,\n        bytes32 r,\n        bytes32 s\n    ) public pure returns (bool) {\n        // check that the challengee's signature matches\n        _nextState.requireSignature(v, r, s);\n\n        require(validTransition(_challengeState, _nextState));\n\n        return true;\n    }\n\n    function validAlternativeRespondWithMove(\n        bytes _challengeState,\n        bytes _alternativeState,\n        bytes _nextState,\n        uint8[] v,\n        bytes32[] r,\n        bytes32[] s\n    ) public pure returns (bool) {\n\n        // checking the alternative state:\n        // .. it must have the right channel\n        require(_challengeState.channelId() == _alternativeState.channelId());\n        // .. it must have the same nonce as the challenge state\n        require(_challengeState.turnNum() == _alternativeState.turnNum());\n        // .. it must be signed (by the challenger)\n        _alternativeState.requireSignature(v[0], r[0], s[0]);\n\n        // checking the nextState:\n        // .. it must be signed (my the challengee)\n        _nextState.requireSignature(v[1], r[1], s[1]);\n        // .. it must be a valid transition of the gamestate (from the alternative state)\n        require(validTransition(_alternativeState, _nextState));\n\n        return true;\n    }\n\n    function validTransition(bytes _fromState, bytes _toState) public pure returns (bool) {\n        require(_toState.channelId() == _fromState.channelId());\n        require(_toState.turnNum() == _fromState.turnNum() + 1);\n\n        if (_fromState.stateType() == State.StateType.PreFundSetup) {\n            return validTransitionFromPreFundSetup(_fromState, _toState);\n        } else if (_fromState.stateType() == State.StateType.PostFundSetup) {\n            return validTransitionFromPostFundSetup(_fromState, _toState);\n        } else if (_fromState.stateType() == State.StateType.Game) {\n            return validTransitionFromGame(_fromState, _toState);\n        } else if (_fromState.stateType() == State.StateType.Conclude) {\n            return validTransitionFromConclude(_fromState, _toState);\n        }\n\n        return true;\n    }\n\n    function validTransitionFromPreFundSetup(bytes _fromState, bytes _toState) public pure returns (bool) {\n        if (_fromState.stateCount() == _fromState.numberOfParticipants() - 1) {\n            // there are two options from the final PreFundSetup state\n            // 1. PreFundSetup -> PostFundSetup transition\n            // 2. PreFundSetup -> Conclude transition\n            if (_toState.stateType() == State.StateType.PostFundSetup) {\n                require(_toState.stateCount() == 0); // reset the stateCount\n                require(State.gameAttributesEqual(_fromState, _toState));\n                require(State.resolutionsEqual(_fromState, _toState));\n            } else {\n                require(_toState.stateType() == State.StateType.Conclude);\n                require(State.resolutionsEqual(_fromState, _toState));\n            }\n        } else {\n            // PreFundSetup -> PreFundSetup transition\n            require(_toState.stateType() == State.StateType.PreFundSetup);\n            require(State.gameAttributesEqual(_fromState, _toState));\n            require(_toState.stateCount() == _fromState.stateCount() + 1);\n            require(State.resolutionsEqual(_fromState, _toState));\n        }\n        return true;\n    }\n\n    function validTransitionFromPostFundSetup(bytes _fromState, bytes _toState) public pure returns (bool) {\n        if (_fromState.stateCount() == _fromState.numberOfParticipants() - 1) {\n            // PostFundSetup -> Game transition is the only option\n            require(_toState.stateType() == State.StateType.Game);\n            require(ForceMoveGame(_fromState.channelType()).validTransition(_fromState, _toState));\n        } else {\n            // Two possibilities:\n            // 1. PostFundSetup -> PostFundSetup transition\n            // 2. PostFundSetup -> Conclude transition\n            if (_toState.stateType() == State.StateType.PostFundSetup) {\n                // PostFundSetup -> PostFundSetup\n                require(State.gameAttributesEqual(_fromState, _toState));\n                require(_toState.stateCount() == _fromState.stateCount() + 1);\n                require(State.resolutionsEqual(_fromState, _toState));\n            } else {\n                // PostFundSetup -> Conclude\n                require(_toState.stateType() == State.StateType.Conclude);\n                require(State.resolutionsEqual(_fromState, _toState));\n            }\n        }\n        return true;\n    }\n\n    function validTransitionFromGame(bytes _fromState, bytes _toState) public pure returns (bool) {\n        if (_toState.stateType() == State.StateType.Game) {\n            require(ForceMoveGame(_fromState.channelType()).validTransition(_fromState, _toState));\n        } else {\n            require(_toState.stateType() == State.StateType.Conclude);\n            require(State.resolutionsEqual(_fromState, _toState));\n        }\n        return true;\n    }\n\n    function validTransitionFromConclude(bytes _fromState, bytes _toState) public pure returns (bool) {\n        require(_toState.stateType() == State.StateType.Conclude);\n        require(State.resolutionsEqual(_fromState, _toState));\n        return true;\n    }\n}\n",
  "sourcePath": "fmg-core/contracts/Rules.sol",
  "compiler": {
    "name": "solc",
    "version": "0.4.24+commit.e67f0147.Emscripten.clang"
  },
  "schemaVersion": "2.0.1",
  "updatedAt": "2018-10-07T22:12:49.650Z"
}