{
  "contractName": "SimpleAdjudicator",
  "abi": [
    {
      "constant": true,
      "inputs": [],
      "name": "fundedChannelId",
      "outputs": [
        {
          "name": "",
          "type": "bytes32"
        }
      ],
      "payable": false,
      "stateMutability": "view",
      "type": "function"
    },
    {
      "inputs": [
        {
          "name": "_fundedChannelId",
          "type": "bytes32"
        }
      ],
      "payable": true,
      "stateMutability": "payable",
      "type": "constructor"
    },
    {
      "payable": true,
      "stateMutability": "payable",
      "type": "fallback"
    },
    {
      "anonymous": false,
      "inputs": [
        {
          "indexed": false,
          "name": "amountReceived",
          "type": "uint256"
        },
        {
          "indexed": false,
          "name": "sender",
          "type": "address"
        },
        {
          "indexed": false,
          "name": "adjudicatorBalance",
          "type": "uint256"
        }
      ],
      "name": "FundsReceived",
      "type": "event"
    },
    {
      "anonymous": false,
      "inputs": [],
      "name": "GameConcluded",
      "type": "event"
    },
    {
      "anonymous": false,
      "inputs": [
        {
          "indexed": false,
          "name": "refutation",
          "type": "bytes"
        }
      ],
      "name": "Refuted",
      "type": "event"
    },
    {
      "anonymous": false,
      "inputs": [
        {
          "indexed": false,
          "name": "response",
          "type": "bytes"
        }
      ],
      "name": "RespondedWithMove",
      "type": "event"
    },
    {
      "anonymous": false,
      "inputs": [
        {
          "indexed": false,
          "name": "alternativeResponse",
          "type": "bytes"
        }
      ],
      "name": "RespondedWithAlternativeMove",
      "type": "event"
    },
    {
      "anonymous": false,
      "inputs": [
        {
          "indexed": false,
          "name": "channelId",
          "type": "bytes32"
        },
        {
          "indexed": false,
          "name": "state",
          "type": "bytes"
        },
        {
          "indexed": false,
          "name": "expirationTime",
          "type": "uint32"
        },
        {
          "indexed": false,
          "name": "payouts",
          "type": "uint256[]"
        }
      ],
      "name": "ChallengeCreated",
      "type": "event"
    },
    {
      "constant": false,
      "inputs": [
        {
          "name": "_fromState",
          "type": "bytes"
        },
        {
          "name": "_toState",
          "type": "bytes"
        },
        {
          "name": "_v",
          "type": "uint8[]"
        },
        {
          "name": "_r",
          "type": "bytes32[]"
        },
        {
          "name": "_s",
          "type": "bytes32[]"
        }
      ],
      "name": "forceMove",
      "outputs": [],
      "payable": false,
      "stateMutability": "nonpayable",
      "type": "function"
    },
    {
      "constant": false,
      "inputs": [
        {
          "name": "_penultimateState",
          "type": "bytes"
        },
        {
          "name": "_ultimateState",
          "type": "bytes"
        },
        {
          "name": "participant",
          "type": "address"
        },
        {
          "name": "destination",
          "type": "address"
        },
        {
          "name": "_channelId",
          "type": "bytes32"
        },
        {
          "name": "_v",
          "type": "uint8[]"
        },
        {
          "name": "_r",
          "type": "bytes32[]"
        },
        {
          "name": "_s",
          "type": "bytes32[]"
        }
      ],
      "name": "concludeAndWithdraw",
      "outputs": [],
      "payable": false,
      "stateMutability": "nonpayable",
      "type": "function"
    },
    {
      "constant": false,
      "inputs": [
        {
          "name": "_penultimateState",
          "type": "bytes"
        },
        {
          "name": "_ultimateState",
          "type": "bytes"
        },
        {
          "name": "_v",
          "type": "uint8[]"
        },
        {
          "name": "_r",
          "type": "bytes32[]"
        },
        {
          "name": "_s",
          "type": "bytes32[]"
        }
      ],
      "name": "conclude",
      "outputs": [],
      "payable": false,
      "stateMutability": "nonpayable",
      "type": "function"
    },
    {
      "constant": false,
      "inputs": [
        {
          "name": "_refutationState",
          "type": "bytes"
        },
        {
          "name": "v",
          "type": "uint8"
        },
        {
          "name": "r",
          "type": "bytes32"
        },
        {
          "name": "s",
          "type": "bytes32"
        }
      ],
      "name": "refute",
      "outputs": [],
      "payable": false,
      "stateMutability": "nonpayable",
      "type": "function"
    },
    {
      "constant": false,
      "inputs": [
        {
          "name": "_nextState",
          "type": "bytes"
        },
        {
          "name": "v",
          "type": "uint8"
        },
        {
          "name": "r",
          "type": "bytes32"
        },
        {
          "name": "s",
          "type": "bytes32"
        }
      ],
      "name": "respondWithMove",
      "outputs": [],
      "payable": false,
      "stateMutability": "nonpayable",
      "type": "function"
    },
    {
      "constant": false,
      "inputs": [
        {
          "name": "_alternativeState",
          "type": "bytes"
        },
        {
          "name": "_nextState",
          "type": "bytes"
        },
        {
          "name": "_v",
          "type": "uint8[]"
        },
        {
          "name": "_r",
          "type": "bytes32[]"
        },
        {
          "name": "_s",
          "type": "bytes32[]"
        }
      ],
      "name": "alternativeRespondWithMove",
      "outputs": [],
      "payable": false,
      "stateMutability": "nonpayable",
      "type": "function"
    },
    {
      "constant": false,
      "inputs": [
        {
          "name": "participant",
          "type": "address"
        },
        {
          "name": "destination",
          "type": "address"
        },
        {
          "name": "_channelId",
          "type": "bytes32"
        },
        {
          "name": "v",
          "type": "uint8"
        },
        {
          "name": "r",
          "type": "bytes32"
        },
        {
          "name": "s",
          "type": "bytes32"
        }
      ],
      "name": "withdraw",
      "outputs": [],
      "payable": false,
      "stateMutability": "nonpayable",
      "type": "function"
    },
    {
      "constant": true,
      "inputs": [
        {
          "name": "_fromState",
          "type": "bytes"
        },
        {
          "name": "_toState",
          "type": "bytes"
        }
      ],
      "name": "validTransition",
      "outputs": [
        {
          "name": "",
          "type": "bool"
        }
      ],
      "payable": false,
      "stateMutability": "pure",
      "type": "function"
    },
    {
      "constant": true,
      "inputs": [],
      "name": "currentChallengePresent",
      "outputs": [
        {
          "name": "",
          "type": "bool"
        }
      ],
      "payable": false,
      "stateMutability": "view",
      "type": "function"
    },
    {
      "constant": true,
      "inputs": [],
      "name": "activeChallengePresent",
      "outputs": [
        {
          "name": "",
          "type": "bool"
        }
      ],
      "payable": false,
      "stateMutability": "view",
      "type": "function"
    },
    {
      "constant": true,
      "inputs": [],
      "name": "expiredChallengePresent",
      "outputs": [
        {
          "name": "",
          "type": "bool"
        }
      ],
      "payable": false,
      "stateMutability": "view",
      "type": "function"
    }
  ],
  "bytecode": "0x60806040526201518060055560405160208061297d8339810180604052810190808051906020019092919050505080600081600019169055507ffb932f39cc5ea177af75a4f1502d59d13404be49a2edb139943b43e4fb3fe45b34333073ffffffffffffffffffffffffffffffffffffffff1631604051808481526020018373ffffffffffffffffffffffffffffffffffffffff1673ffffffffffffffffffffffffffffffffffffffff168152602001828152602001935050505060405180910390a1506128ab806100d26000396000f3006080604052600436106100ba576000357c0100000000000000000000000000000000000000000000000000000000900463ffffffff16806302fd670814610146578063234cae0e146101755780634350a91c146101a85780634eb30269146101d757806365a7c9d1146102c05780639207bf961461035a578063a0d44a4114610421578063b9b19cb214610450578063c830c29e146104eb578063d0d2df691461054f578063d626a7fe146105ea578063f20e10fd14610685575b7ffb932f39cc5ea177af75a4f1502d59d13404be49a2edb139943b43e4fb3fe45b34333073ffffffffffffffffffffffffffffffffffffffff1631604051808481526020018373ffffffffffffffffffffffffffffffffffffffff1673ffffffffffffffffffffffffffffffffffffffff168152602001828152602001935050505060405180910390a1005b34801561015257600080fd5b5061015b6106e9565b604051808215151515815260200191505060405180910390f35b34801561018157600080fd5b5061018a610709565b60405180826000191660001916815260200191505060405180910390f35b3480156101b457600080fd5b506101bd61070f565b604051808215151515815260200191505060405180910390f35b3480156101e357600080fd5b506102be600480360381019080803590602001908201803590602001919091929391929390803590602001908201803590602001919091929391929390803573ffffffffffffffffffffffffffffffffffffffff169060200190929190803573ffffffffffffffffffffffffffffffffffffffff1690602001909291908035600019169060200190929190803590602001908201803590602001919091929391929390803590602001908201803590602001919091929391929390803590602001908201803590602001919091929391929390505050610734565b005b3480156102cc57600080fd5b50610358600480360381019080803573ffffffffffffffffffffffffffffffffffffffff169060200190929190803573ffffffffffffffffffffffffffffffffffffffff1690602001909291908035600019169060200190929190803560ff169060200190929190803560001916906020019092919080356000191690602001909291905050506108a8565b005b34801561036657600080fd5b50610407600480360381019080803590602001908201803590602001908080601f0160208091040260200160405190810160405280939291908181526020018383808284378201915050505050509192919290803590602001908201803590602001908080601f01602080910402602001604051908101604052809392919081815260200183838082843782019150505050505091929192905050506108d1565b604051808215151515815260200191505060405180910390f35b34801561042d57600080fd5b50610436610a53565b604051808215151515815260200191505060405180910390f35b34801561045c57600080fd5b506104e9600480360381019080803590602001908201803590602001919091929391929390803590602001908201803590602001919091929391929390803590602001908201803590602001919091929391929390803590602001908201803590602001919091929391929390803590602001908201803590602001919091929391929390505050610a78565b005b3480156104f757600080fd5b5061054d600480360381019080803590602001908201803590602001919091929391929390803560ff16906020019092919080356000191690602001909291908035600019169060200190929190505050610e94565b005b34801561055b57600080fd5b506105e860048036038101908080359060200190820180359060200191909192939192939080359060200190820180359060200191909192939192939080359060200190820180359060200191909192939192939080359060200190820180359060200191909192939192939080359060200190820180359060200191909192939192939050505061108d565b005b3480156105f657600080fd5b506106836004803603810190808035906020019082018035906020019190919293919293908035906020019082018035906020019190919293919293908035906020019082018035906020019190919293919293908035906020019082018035906020019190919293919293908035906020019082018035906020019190919293919293905050506111ab565b005b34801561069157600080fd5b506106e7600480360381019080803590602001908201803590602001919091929391929390803560ff16906020019092919080356000191690602001909291908035600019169060200190929190505050611516565b005b60006106f361070f565b80156107045750610702610a53565b155b905090565b60005481565b600080600160020160009054906101000a900463ffffffff1663ffffffff1611905090565b61073c6106e9565b1515610841576108408d8d8080601f0160208091040260200160405190810160405280939291908181526020018383808284378201915050505050508c8c8080601f016020809104026020016040519081016040528093929190818152602001838380828437820191505050505050888880806020026020016040519081016040528093929190818152602001838360200280828437820191505050505050878780806020026020016040519081016040528093929190818152602001838360200280828437820191505050505050868680806020026020016040519081016040528093929190818152602001838360200280828437820191505050505050611865565b5b61089989898989896002818110151561085657fe5b9050602002013560ff1688886002818110151561086f57fe5b905060200201356000191687876002818110151561088957fe5b9050602002013560001916611c35565b50505050505050505050505050565b6108b06106e9565b15156108bb57600080fd5b6108c9868686868686611c35565b505050505050565b600073__Rules_________________________________639207bf9684846040518363ffffffff167c0100000000000000000000000000000000000000000000000000000000028152600401808060200180602001838103835285818151815260200191508051906020019080838360005b8381101561095e578082015181840152602081019050610943565b50505050905090810190601f16801561098b5780820380516001836020036101000a031916815260200191505b50838103825284818151815260200191508051906020019080838360005b838110156109c45780820151818401526020810190506109a9565b50505050905090810190601f1680156109f15780820380516001836020036101000a031916815260200191505b5094505050505060206040518083038186803b158015610a1057600080fd5b505af4158015610a24573d6000803e3d6000fd5b505050506040513d6020811015610a3a57600080fd5b8101908080519060200190929190505050905092915050565b600042600160020160009054906101000a900463ffffffff1663ffffffff1611905090565b6060806060610a8561070f565b151515610a9157600080fd5b600054600019168d8d8080601f01602080910402602001604051908101604052809392919081815260200183838082843782019150505050505073__State_________________________________639c0717e390916040518263ffffffff167c01000000000000000000000000000000000000000000000000000000000281526004018080602001828103825283818151815260200191508051906020019080838360005b83811015610b52578082015181840152602081019050610b37565b50505050905090810190601f168015610b7f5780820380516001836020036101000a031916815260200191505b509250505060206040518083038186803b158015610b9c57600080fd5b505af4158015610bb0573d6000803e3d6000fd5b505050506040513d6020811015610bc657600080fd5b810190808051906020019092919050505060001916141515610be757600080fd5b88888080602002602001604051908101604052809392919081815260200183836020028082843782019150505050505092508686808060200260200160405190810160405280939291908181526020018383602002808284378201915050505050509150848480806020026020016040519081016040528093929190818152602001838360200280828437820191505050505050905073__Rules_________________________________63d997535f8e8e8e8e8888886040518863ffffffff167c010000000000000000000000000000000000000000000000000000000002815260040180806020018060200180602001806020018060200186810386528d8d82818152602001925080828437820191505086810385528b8b828181526020019250808284378201915050868103845289818151815260200191508051906020019060200280838360005b83811015610d4e578082015181840152602081019050610d33565b50505050905001868103835288818151815260200191508051906020019060200280838360005b83811015610d90578082015181840152602081019050610d75565b50505050905001868103825287818151815260200191508051906020019060200280838360005b83811015610dd2578082015181840152602081019050610db7565b505050509050019c5050505050505050505050505060206040518083038186803b158015610dff57600080fd5b505af4158015610e13573d6000803e3d6000fd5b505050506040513d6020811015610e2957600080fd5b81019080805190602001909291905050501515610e4557600080fd5b610e8560055442018c8c8080601f016020809104026020016040519081016040528093929190818152602001838380828437820191505050505050611e74565b50505050505050505050505050565b610e9c610a53565b1515610ea757600080fd5b73__Rules_________________________________6359b3fb496001800187878787876040518763ffffffff167c01000000000000000000000000000000000000000000000000000000000281526004018080602001806020018660ff1660ff16815260200185600019166000191681526020018460001916600019168152602001838103835289818154600181600116156101000203166002900481526020019150805460018160011615610100020316600290048015610faa5780601f10610f7f57610100808354040283529160200191610faa565b820191906000526020600020905b815481529060010190602001808311610f8d57829003601f168201915b5050838103825288888281815260200192508082843782019150509850505050505050505060206040518083038186803b158015610fe757600080fd5b505af4158015610ffb573d6000803e3d6000fd5b505050506040513d602081101561101157600080fd5b8101908080519060200190929190505050151561102d57600080fd5b611035612183565b7f769677437a2aba4b228111e9543e19cf6d812abd1cb819a22e02c9809e244de58585604051808060200182810382528484828181526020019250808284378201915050935050505060405180910390a15050505050565b6110956106e9565b1515156110a157600080fd5b61119f8a8a8080601f01602080910402602001604051908101604052809392919081815260200183838082843782019150505050505089898080601f016020809104026020016040519081016040528093929190818152602001838380828437820191505050505050888880806020026020016040519081016040528093929190818152602001838360200280828437820191505050505050878780806020026020016040519081016040528093929190818152602001838360200280828437820191505050505050868680806020026020016040519081016040528093929190818152602001838360200280828437820191505050505050611865565b50505050505050505050565b60608060606111b8610a53565b15156111c357600080fd5b88888080602002602001604051908101604052809392919081815260200183836020028082843782019150505050505092508686808060200260200160405190810160405280939291908181526020018383602002808284378201915050505050509150848480806020026020016040519081016040528093929190818152602001838360200280828437820191505050505050905073__Rules_________________________________63a483eb1d600180018f8f8f8f8989896040518963ffffffff167c01000000000000000000000000000000000000000000000000000000000281526004018080602001806020018060200180602001806020018060200187810387528f8181546001816001161561010002031660029004815260200191508054600181600116156101000203166002900480156113465780601f1061131b57610100808354040283529160200191611346565b820191906000526020600020905b81548152906001019060200180831161132957829003601f168201915b505087810386528e8e82818152602001925080828437820191505087810385528c8c82818152602001925080828437820191505087810384528a818151815260200191508051906020019060200280838360005b838110156113b557808201518184015260208101905061139a565b50505050905001878103835289818151815260200191508051906020019060200280838360005b838110156113f75780820151818401526020810190506113dc565b50505050905001878103825288818151815260200191508051906020019060200280838360005b8381101561143957808201518184015260208101905061141e565b505050509050019e50505050505050505050505050505060206040518083038186803b15801561146857600080fd5b505af415801561147c573d6000803e3d6000fd5b505050506040513d602081101561149257600080fd5b810190808051906020019092919050505015156114ae57600080fd5b6114b6612183565b7f304f56a1dd9f0afdc06f47cc8de2c6e6f7614bd319b14ab2074a31e84340addb8b8b604051808060200182810382528484828181526020019250808284378201915050935050505060405180910390a150505050505050505050505050565b61151e610a53565b151561152957600080fd5b84848080601f01602080910402602001604051908101604052809392919081815260200183838082843782019150505050505073__State_________________________________639c0717e390916040518263ffffffff167c01000000000000000000000000000000000000000000000000000000000281526004018080602001828103825283818151815260200191508051906020019080838360005b838110156115e35780820151818401526020810190506115c8565b50505050905090810190601f1680156116105780820380516001836020036101000a031916815260200191505b509250505060206040518083038186803b15801561162d57600080fd5b505af4158015611641573d6000803e3d6000fd5b505050506040513d602081101561165757600080fd5b8101908080519060200190929190505050600019166000546000191614151561167f57600080fd5b73__Rules_________________________________63f788ea186001800187878787876040518763ffffffff167c01000000000000000000000000000000000000000000000000000000000281526004018080602001806020018660ff1660ff168152602001856000191660001916815260200184600019166000191681526020018381038352898181546001816001161561010002031660029004815260200191508054600181600116156101000203166002900480156117825780601f1061175757610100808354040283529160200191611782565b820191906000526020600020905b81548152906001019060200180831161176557829003601f168201915b5050838103825288888281815260200192508082843782019150509850505050505050505060206040518083038186803b1580156117bf57600080fd5b505af41580156117d3573d6000803e3d6000fd5b505050506040513d60208110156117e957600080fd5b8101908080519060200190929190505050151561180557600080fd5b61180d612183565b7fadf610ac3b3a479ddd85f0b6d56b7cfb7f2f892356c9151876d4a9c5ac725de28585604051808060200182810382528484828181526020019250808284378201915050935050505060405180910390a15050505050565b6060806060600054600019168873__State_________________________________639c0717e390916040518263ffffffff167c01000000000000000000000000000000000000000000000000000000000281526004018080602001828103825283818151815260200191508051906020019080838360005b838110156118f95780820151818401526020810190506118de565b50505050905090810190601f1680156119265780820380516001836020036101000a031916815260200191505b509250505060206040518083038186803b15801561194357600080fd5b505af4158015611957573d6000803e3d6000fd5b505050506040513d602081101561196d57600080fd5b81019080805190602001909291905050506000191614151561198e57600080fd5b85925084915083905073__Rules_________________________________6351d6d79489898686866040518663ffffffff167c010000000000000000000000000000000000000000000000000000000002815260040180806020018060200180602001806020018060200186810386528b818151815260200191508051906020019080838360005b83811015611a31578082015181840152602081019050611a16565b50505050905090810190601f168015611a5e5780820380516001836020036101000a031916815260200191505b5086810385528a818151815260200191508051906020019080838360005b83811015611a97578082015181840152602081019050611a7c565b50505050905090810190601f168015611ac45780820380516001836020036101000a031916815260200191505b50868103845289818151815260200191508051906020019060200280838360005b83811015611b00578082015181840152602081019050611ae5565b50505050905001868103835288818151815260200191508051906020019060200280838360005b83811015611b42578082015181840152602081019050611b27565b50505050905001868103825287818151815260200191508051906020019060200280838360005b83811015611b84578082015181840152602081019050611b69565b505050509050019a505050505050505050505060206040518083038186803b158015611baf57600080fd5b505af4158015611bc3573d6000803e3d6000fd5b505050506040513d6020811015611bd957600080fd5b81019080805190602001909291905050501515611bf557600080fd5b611bff4288611e74565b7ff18bf04ef7607440082c9c8b6e87f1959c5f5c5e3ff201a910647cc6e230d39e60405160405180910390a15050505050505050565b600080600080600080611c4c8c8c8c8c8c8c6121aa565b73ffffffffffffffffffffffffffffffffffffffff168c73ffffffffffffffffffffffffffffffffffffffff16141515611d14576040517f08c379a00000000000000000000000000000000000000000000000000000000081526004018080602001828103825260308152602001807f5061727469636970616e74206d757374207369676e206f6666206f6e2064657381526020017f74696e6174696f6e20616464726573730000000000000000000000000000000081525060400191505060405180910390fd5b611d1d8c61246e565b955060066000600281101515611d2f57fe5b015460016003016000815481101515611d4457fe5b9060005260206000200154039450611d733073ffffffffffffffffffffffffffffffffffffffff163186612774565b935060008660ff161415611d8957839250611df2565b60018660ff161415611df15760066001600281101515611da557fe5b015460016003016001815481101515611dba57fe5b9060005260206000200154039150611deb843073ffffffffffffffffffffffffffffffffffffffff16310383612774565b90508092505b5b8a73ffffffffffffffffffffffffffffffffffffffff166108fc849081150290604051600060405180830381858888f19350505050158015611e38573d6000803e3d6000fd5b508260068760ff16600281101515611e4c57fe5b01540160068760ff16600281101515611e6157fe5b0181905550505050505050505050505050565b6000546001600001816000191690555080600180019080519060200190611e9c92919061278d565b5081600160020160006101000a81548163ffffffff021916908363ffffffff16021790555073__State_________________________________632e6f220c826040518263ffffffff167c01000000000000000000000000000000000000000000000000000000000281526004018080602001828103825283818151815260200191508051906020019080838360005b83811015611f47578082015181840152602081019050611f2c565b50505050905090810190601f168015611f745780820380516001836020036101000a031916815260200191505b509250505060006040518083038186803b158015611f9157600080fd5b505af4158015611fa5573d6000803e3d6000fd5b505050506040513d6000823e3d601f19601f820116820180604052506020811015611fcf57600080fd5b810190808051640100000000811115611fe757600080fd5b82810190506020810184811115611ffd57600080fd5b815185602082028301116401000000008211171561201a57600080fd5b50509291905050506001600301908051906020019061203a92919061280d565b507f0dcaa5dd7d6f4b963b65eb51a19e330900fe0a4df673b3114d8f0bde82f7822a60016000015460018001600160020160009054906101000a900463ffffffff166001600301604051808560001916600019168152602001806020018463ffffffff1663ffffffff1681526020018060200183810383528681815460018160011615610100020316600290048152602001915080546001816001161561010002031660029004801561212e5780601f106121035761010080835404028352916020019161212e565b820191906000526020600020905b81548152906001019060200180831161211157829003601f168201915b5050838103825284818154815260200191508054801561216d57602002820191906000526020600020905b815481526020019060010190808311612159575b5050965050505050505060405180910390a15050565b6000600160020160006101000a81548163ffffffff021916908363ffffffff160217905550565b600080606060008989600054604051602001808473ffffffffffffffffffffffffffffffffffffffff1673ffffffffffffffffffffffffffffffffffffffff166c010000000000000000000000000281526014018373ffffffffffffffffffffffffffffffffffffffff1673ffffffffffffffffffffffffffffffffffffffff166c01000000000000000000000000028152601401826000191660001916815260200193505050506040516020818303038152906040526040518082805190602001908083835b6020831015156122965780518252602082019150602081019050602083039250612271565b6001836020036101000a038019825116818451168082178552505050505050905001915050604051809103902092506040805190810160405280601c81526020017f19457468657265756d205369676e6564204d6573736167653a0a333200000000815250915081836040516020018083805190602001908083835b6020831015156123375780518252602082019150602081019050602083039250612312565b6001836020036101000a0380198251168184511680821785525050505050509050018260001916600019168152602001925050506040516020818303038152906040526040518082805190602001908083835b6020831015156123af578051825260208201915060208101905060208303925061238a565b6001836020036101000a03801982511681845116808217855250505050505090500191505060405180910390209050600181888888604051600081526020016040526040518085600019166000191681526020018460ff1660ff1681526020018360001916600019168152602001826000191660001916815260200194505050505060206040516020810390808403906000865af1158015612455573d6000803e3d6000fd5b5050506020604051035193505050509695505050505050565b6000606080600061247d61070f565b151561248857600080fd5b600180018054600181600116156101000203166002900480601f0160208091040260200160405190810160405280929190818152602001828054600181600116156101000203166002900480156125205780601f106124f557610100808354040283529160200191612520565b820191906000526020600020905b81548152906001019060200180831161250357829003601f168201915b5050505050925073__State_________________________________6321990b9c846040518263ffffffff167c01000000000000000000000000000000000000000000000000000000000281526004018080602001828103825283818151815260200191508051906020019080838360005b838110156125ad578082015181840152602081019050612592565b50505050905090810190601f1680156125da5780820380516001836020036101000a031916815260200191505b509250505060006040518083038186803b1580156125f757600080fd5b505af415801561260b573d6000803e3d6000fd5b505050506040513d6000823e3d601f19601f82011682018060405250602081101561263557600080fd5b81019080805164010000000081111561264d57600080fd5b8281019050602081018481111561266357600080fd5b815185602082028301116401000000008211171561268057600080fd5b50509291905050509150600090505b60028160ff1610156126fe578473ffffffffffffffffffffffffffffffffffffffff16828260ff168151811015156126c357fe5b9060200190602002015173ffffffffffffffffffffffffffffffffffffffff1614156126f15780935061276c565b808060010191505061268f565b6040517f08c379a00000000000000000000000000000000000000000000000000000000081526004018080602001828103825260188152602001807f5061727469636970616e74206e6f7420696e2067616d652e000000000000000081525060200191505060405180910390fd5b505050919050565b60008183106127835781612785565b825b905092915050565b828054600181600116156101000203166002900490600052602060002090601f016020900481019282601f106127ce57805160ff19168380011785556127fc565b828001600101855582156127fc579182015b828111156127fb5782518255916020019190600101906127e0565b5b509050612809919061285a565b5090565b828054828255906000526020600020908101928215612849579160200282015b8281111561284857825182559160200191906001019061282d565b5b509050612856919061285a565b5090565b61287c91905b80821115612878576000816000905550600101612860565b5090565b905600a165627a7a72305820c97d675994dc21c3e89443e856467e145bc2a2e43bbed245e11d596c0d22b8f60029",
  "source": "pragma solidity ^0.4.23;\n\nimport \"fmg-core/contracts/State.sol\";\nimport \"fmg-core/contracts/Rules.sol\";\nimport \"fmg-core/contracts/ForceMoveGame.sol\";\n\ncontract SimpleAdjudicator {\n    // SimpleAdjudicator can support exactly one force move game channel\n    // between exactly two players.\n    using State for bytes;\n\n    bytes32 public fundedChannelId;\n\n    Rules.Challenge currentChallenge;\n    uint challengeDuration = 1 days;\n    uint[2] withdrawnAmount;\n\n    event FundsReceived(\n        uint amountReceived,\n        address sender,\n        uint adjudicatorBalance\n    );\n\n    constructor(bytes32 _fundedChannelId) public payable {\n        fundedChannelId = _fundedChannelId;\n\n        emit FundsReceived(\n            msg.value,\n            msg.sender,\n            address(this).balance\n        );\n    }\n\n    // allow funds to be sent to the contract\n    function () public payable {\n        emit FundsReceived(\n            msg.value,\n            msg.sender,\n            address(this).balance\n        );\n    }\n\n    function forceMove (\n        bytes _fromState,\n        bytes _toState,\n        uint8[] _v,\n        bytes32[] _r,\n        bytes32[] _s\n      )\n        external\n        onlyWhenCurrentChallengeNotPresent\n      {\n        // channelId must match the game supported by the channel\n        require(_fromState.channelId() == fundedChannelId);\n\n        // passing _v, _r, _s directly to validForceMove gives a \"Stack too deep\" error\n        uint8[] memory v = _v;\n        bytes32[] memory r = _r;\n        bytes32[] memory s = _s;\n\n        // must be a valid force move\n        require(Rules.validForceMove(_fromState, _toState, v, r, s));\n\n        createChallenge(uint32(now + challengeDuration), _toState);\n    }\n\n    function concludeAndWithdraw(\n        bytes _penultimateState,\n        bytes _ultimateState,\n        address participant,\n        address destination,\n        bytes32 _channelId,\n        uint8[] _v,\n        bytes32[] _r,\n        bytes32[] _s\n    ) external{\n        if (!expiredChallengePresent()){\n            _conclude(\n                _penultimateState,\n                _ultimateState,\n                _v,\n                _r,\n                _s\n            );\n        }\n        _withdraw(participant, destination,_channelId,_v[2],_r[2],_s[2]);\n\n    }\n\n    function conclude(\n        bytes _penultimateState,\n        bytes _ultimateState,\n        uint8[] _v,\n        bytes32[] _r,\n        bytes32[] _s)\n    external onlyWhenGameOngoing \n    {\n        _conclude(_penultimateState,_ultimateState,_v,_r,_s);\n    }\n    event GameConcluded();\n    function _conclude(\n        bytes _penultimateState,\n        bytes _ultimateState,\n        uint8[] _v,\n        bytes32[] _r,\n        bytes32[] _s\n    )\n      internal\n    {\n        // channelId must match the game supported by the channel\n        require(_penultimateState.channelId() == fundedChannelId);\n\n        // passing _v, _r, _s directly to validConclusionProof gives a \"Stack too deep\" error\n        uint8[] memory v = _v;\n        bytes32[] memory r = _r;\n        bytes32[] memory s = _s;\n\n        // must be a valid conclusion proof according to framework rules\n        require(Rules.validConclusionProof(_penultimateState, _ultimateState, v, r, s));\n\n        // Create an expired challenge, (possibly) overwriting any existing challenge\n        createChallenge(uint32(now), _ultimateState);\n        emit GameConcluded();\n        \n    }\n\n    event Refuted(bytes refutation);\n    function refute(bytes _refutationState, uint8 v, bytes32 r, bytes32 s)\n      external\n      onlyWhenCurrentChallengeActive\n    {\n        // channelId must match the game supported by the channel\n        require(fundedChannelId == _refutationState.channelId());\n\n        // must be a valid refute according to framework rules\n        require(Rules.validRefute(currentChallenge.state, _refutationState, v, r, s));\n\n        cancelCurrentChallenge();\n\n        emit Refuted(_refutationState);\n    }\n\n    event RespondedWithMove(bytes response);\n    function respondWithMove(bytes _nextState, uint8 v, bytes32 r, bytes32 s)\n      external\n      onlyWhenCurrentChallengeActive\n    {\n        // must be valid respond with move according to the framework rules\n        require(Rules.validRespondWithMove(currentChallenge.state, _nextState, v, r, s));\n\n        cancelCurrentChallenge();\n        emit RespondedWithMove(_nextState);\n    }\n\n    event RespondedWithAlternativeMove(bytes alternativeResponse);\n    function alternativeRespondWithMove(\n        bytes _alternativeState,\n        bytes _nextState,\n        uint8[] _v,\n        bytes32[] _r,\n        bytes32[] _s\n    )\n      external\n      onlyWhenCurrentChallengeActive\n    {\n        // passing _v, _r, _s directly to validAlternativeRespondWithMove gives a \"Stack too deep\" error\n        uint8[] memory v = _v;\n        bytes32[] memory r = _r;\n        bytes32[] memory s = _s;\n\n        // must be valid alternative respond with move according to the framework rules\n        require(Rules.validAlternativeRespondWithMove(currentChallenge.state, _alternativeState, _nextState, v, r, s));\n\n        cancelCurrentChallenge();\n        emit RespondedWithAlternativeMove(_nextState);\n    }\n\n    event ChallengeCreated(\n        bytes32 channelId,\n        bytes state,\n        uint32 expirationTime,\n        uint256[] payouts\n    );\n\n    function createChallenge(uint32 expirationTime, bytes _state) private {\n        currentChallenge.channelId = fundedChannelId;\n        currentChallenge.state = _state;\n        currentChallenge.expirationTime = expirationTime;\n        currentChallenge.payouts = State.resolution(_state);\n\n        emit ChallengeCreated(\n            currentChallenge.channelId,\n            currentChallenge.state,\n            currentChallenge.expirationTime,\n            currentChallenge.payouts\n        );\n    }\n\n    function recoverParticipant(\n        address participant,\n        address destination,\n        bytes32 _channelId,\n        uint8 v,\n        bytes32 r,\n        bytes32 s\n    ) internal view returns (address) {\n        bytes32 h = keccak256(abi.encodePacked(participant, destination, fundedChannelId)); \n        bytes memory prefix = \"\\x19Ethereum Signed Message:\\n32\";\n\n        bytes32 prefixedHash = keccak256(\n            abi.encodePacked(prefix, h)\n        );\n\n        return ecrecover(prefixedHash, v, r, s);\n    }\n\n\n    function withdraw(\n        address participant,\n        address destination,\n        bytes32 _channelId, // not needed for the simple adjudicator, which only supports one channel\n        uint8 v,\n        bytes32 r,\n        bytes32 s\n    )\n      public\n      onlyWhenGameTerminated\n    {\n        return _withdraw(participant, destination, _channelId,v,r,s);\n    }\n\n    function _withdraw(\n        address participant,\n        address destination,\n        bytes32 _channelId, // not needed for the simple adjudicator, which only supports one channel\n        uint8 v,\n        bytes32 r,\n        bytes32 s\n    )\n      internal\n    {\n\n        // check that the participant has signed off on the destination\n        // address for the funds\n        require(\n            participant == recoverParticipant(participant, destination, _channelId, v, r, s),\n            \"Participant must sign off on destination address\"\n        );\n\n        uint8 idx = participantIdx(participant);\n\n        uint owedToA = currentChallenge.payouts[0] - withdrawnAmount[0];\n        uint aPending = min(address(this).balance, owedToA);\n\n        uint amount;\n        if (idx == 0) {\n            amount = aPending;\n        } else if (idx == 1) {\n            uint owedToB = currentChallenge.payouts[1] - withdrawnAmount[1];\n            uint bPending = min(address(this).balance - aPending, owedToB);\n            amount = bPending;\n        }\n\n        destination.transfer(amount);\n        withdrawnAmount[idx] = withdrawnAmount[idx] + amount;\n    }\n\n    function validTransition(bytes _fromState, bytes _toState) public pure returns(bool) {\n        return Rules.validTransition(_fromState, _toState);\n    }\n\n    function min(uint256 a, uint256 b) private pure returns (uint256) {\n        return a < b ? a : b;\n    }\n\n    function cancelCurrentChallenge() private{\n        // TODO: zero out everything(?)\n        currentChallenge.expirationTime = 0;\n    }\n\n    function currentChallengePresent() public view returns (bool) {\n        return currentChallenge.expirationTime > 0;\n    }\n\n    function activeChallengePresent() public view returns (bool) {\n        return (currentChallenge.expirationTime > now);\n    }\n\n    function expiredChallengePresent() public view returns (bool) {\n        return currentChallengePresent() && !activeChallengePresent();\n    }\n\n    function participantIdx(address participant)\n      private view\n      onlyWhenCurrentChallengePresent // otherwise, we don't know that we've seen a valid game state yet\n      returns (uint8) {\n        bytes memory endState = currentChallenge.state;\n        address[] memory p = State.participants(endState);\n        for(uint8 i = 0; i < 2; i++) {\n            if (p[i] == participant) {\n                return i;\n            }\n        }\n        revert(\"Participant not in game.\");\n    }\n\n    // Modifiers\n    modifier onlyWhenCurrentChallengePresent() {\n        require(currentChallengePresent());\n        _;\n    }\n\n    modifier onlyWhenCurrentChallengeNotPresent() {\n        require(!currentChallengePresent());\n        _;\n    }\n\n    modifier onlyWhenGameTerminated() {\n        require(expiredChallengePresent());\n        _;\n    }\n\n    modifier onlyWhenGameOngoing() {\n        require(!expiredChallengePresent());\n        _;\n    }\n\n    modifier onlyWhenCurrentChallengeActive() {\n        require(activeChallengePresent());\n        _;\n    }\n}\n",
  "sourcePath": "/Users/alexgap/code/rps-poc/contracts/SimpleAdjudicator.sol",
  "compiler": {
    "name": "solc",
    "version": "0.4.24+commit.e67f0147.Emscripten.clang"
  },
  "schemaVersion": "2.0.1",
  "updatedAt": "2018-10-07T22:12:49.636Z"
}