{
  "contractName": "State",
  "abi": [
    {
      "constant": true,
      "inputs": [
        {
          "name": "_state",
          "type": "bytes"
        }
      ],
      "name": "channelType",
      "outputs": [
        {
          "name": "_channelType",
          "type": "address"
        }
      ],
      "payable": false,
      "stateMutability": "pure",
      "type": "function"
    },
    {
      "constant": true,
      "inputs": [
        {
          "name": "_state",
          "type": "bytes"
        }
      ],
      "name": "channelNonce",
      "outputs": [
        {
          "name": "_channelNonce",
          "type": "uint256"
        }
      ],
      "payable": false,
      "stateMutability": "pure",
      "type": "function"
    },
    {
      "constant": true,
      "inputs": [
        {
          "name": "_state",
          "type": "bytes"
        }
      ],
      "name": "numberOfParticipants",
      "outputs": [
        {
          "name": "_numberOfParticipants",
          "type": "uint256"
        }
      ],
      "payable": false,
      "stateMutability": "pure",
      "type": "function"
    },
    {
      "constant": true,
      "inputs": [
        {
          "name": "_state",
          "type": "bytes"
        }
      ],
      "name": "participants",
      "outputs": [
        {
          "name": "",
          "type": "address[]"
        }
      ],
      "payable": false,
      "stateMutability": "pure",
      "type": "function"
    },
    {
      "constant": true,
      "inputs": [
        {
          "name": "_state",
          "type": "bytes"
        },
        {
          "name": "_index",
          "type": "uint256"
        }
      ],
      "name": "participant",
      "outputs": [
        {
          "name": "_participant",
          "type": "address"
        }
      ],
      "payable": false,
      "stateMutability": "pure",
      "type": "function"
    },
    {
      "constant": true,
      "inputs": [
        {
          "name": "_state",
          "type": "bytes"
        }
      ],
      "name": "stateType",
      "outputs": [
        {
          "name": "_stateType",
          "type": "State.StateType"
        }
      ],
      "payable": false,
      "stateMutability": "pure",
      "type": "function"
    },
    {
      "constant": true,
      "inputs": [
        {
          "name": "_state",
          "type": "bytes"
        }
      ],
      "name": "turnNum",
      "outputs": [
        {
          "name": "_turnNum",
          "type": "uint256"
        }
      ],
      "payable": false,
      "stateMutability": "pure",
      "type": "function"
    },
    {
      "constant": true,
      "inputs": [
        {
          "name": "_state",
          "type": "bytes"
        }
      ],
      "name": "stateCount",
      "outputs": [
        {
          "name": "_stateCount",
          "type": "uint256"
        }
      ],
      "payable": false,
      "stateMutability": "pure",
      "type": "function"
    },
    {
      "constant": true,
      "inputs": [
        {
          "name": "_state",
          "type": "bytes"
        }
      ],
      "name": "resolution",
      "outputs": [
        {
          "name": "",
          "type": "uint256[]"
        }
      ],
      "payable": false,
      "stateMutability": "pure",
      "type": "function"
    },
    {
      "constant": true,
      "inputs": [
        {
          "name": "_state",
          "type": "bytes"
        }
      ],
      "name": "channelId",
      "outputs": [
        {
          "name": "",
          "type": "bytes32"
        }
      ],
      "payable": false,
      "stateMutability": "pure",
      "type": "function"
    },
    {
      "constant": true,
      "inputs": [
        {
          "name": "_state",
          "type": "bytes"
        }
      ],
      "name": "mover",
      "outputs": [
        {
          "name": "",
          "type": "address"
        }
      ],
      "payable": false,
      "stateMutability": "pure",
      "type": "function"
    },
    {
      "constant": true,
      "inputs": [
        {
          "name": "_state",
          "type": "bytes"
        }
      ],
      "name": "indexOfMover",
      "outputs": [
        {
          "name": "",
          "type": "uint256"
        }
      ],
      "payable": false,
      "stateMutability": "pure",
      "type": "function"
    },
    {
      "constant": true,
      "inputs": [
        {
          "name": "_state",
          "type": "bytes"
        },
        {
          "name": "_v",
          "type": "uint8"
        },
        {
          "name": "_r",
          "type": "bytes32"
        },
        {
          "name": "_s",
          "type": "bytes32"
        }
      ],
      "name": "requireSignature",
      "outputs": [],
      "payable": false,
      "stateMutability": "pure",
      "type": "function"
    },
    {
      "constant": true,
      "inputs": [
        {
          "name": "_state",
          "type": "bytes"
        },
        {
          "name": "_v",
          "type": "uint8[]"
        },
        {
          "name": "_r",
          "type": "bytes32[]"
        },
        {
          "name": "_s",
          "type": "bytes32[]"
        }
      ],
      "name": "requireFullySigned",
      "outputs": [],
      "payable": false,
      "stateMutability": "pure",
      "type": "function"
    },
    {
      "constant": true,
      "inputs": [
        {
          "name": "_state",
          "type": "bytes"
        }
      ],
      "name": "gameStateOffset",
      "outputs": [
        {
          "name": "",
          "type": "uint256"
        }
      ],
      "payable": false,
      "stateMutability": "pure",
      "type": "function"
    },
    {
      "constant": true,
      "inputs": [
        {
          "name": "_state",
          "type": "bytes"
        },
        {
          "name": "_otherState",
          "type": "bytes"
        }
      ],
      "name": "gameAttributesEqual",
      "outputs": [
        {
          "name": "",
          "type": "bool"
        }
      ],
      "payable": false,
      "stateMutability": "pure",
      "type": "function"
    },
    {
      "constant": true,
      "inputs": [
        {
          "name": "_state",
          "type": "bytes"
        },
        {
          "name": "_otherState",
          "type": "bytes"
        }
      ],
      "name": "resolutionsEqual",
      "outputs": [
        {
          "name": "",
          "type": "bool"
        }
      ],
      "payable": false,
      "stateMutability": "pure",
      "type": "function"
    }
  ],
  "bytecode": "0x6114f4610030600b82828239805160001a6073146000811461002057610022565bfe5b5030600052607381538281f3007300000000000000000000000000000000000000003014608060405260043610610108576000357c0100000000000000000000000000000000000000000000000000000000900463ffffffff1680631242d1281461010d57806321990b9c146102325780632e6f220c146102e357806334e08cd7146103945780633d5151fa146104305780635b56b3ee146104cc5780639567151d1461053c5780639c0717e3146105f6578063a845776d1461066e578063b28400c214610714578063b53430ee14610792578063c084ac8d1461084c578063c586f63b146108bc578063caabcf4a1461092c578063ce4338e21461099c578063dcf58e2c14610a21578063f92bdcb114610a91575b600080fd5b610230600480360381019080803590602001908201803590602001908080601f0160208091040260200160405190810160405280939291908181526020018383808284378201915050505050509192919290803590602001908201803590602001908080602002602001604051908101604052809392919081815260200183836020028082843782019150505050505091929192908035906020019082018035906020019080806020026020016040519081016040528093929190818152602001838360200280828437820191505050505050919291929080359060200190820180359060200190808060200260200160405190810160405280939291908181526020018383602002808284378201915050505050509192919290505050610b01565b005b61028c600480360381019080803590602001908201803590602001908080601f0160208091040260200160405190810160405280939291908181526020018383808284378201915050505050509192919290505050610be1565b6040518080602001828103825283818151815260200191508051906020019060200280838360005b838110156102cf5780820151818401526020810190506102b4565b505050509050019250505060405180910390f35b61033d600480360381019080803590602001908201803590602001908080601f0160208091040260200160405190810160405280939291908181526020018383808284378201915050505050509192919290505050610ca4565b6040518080602001828103825283818151815260200191508051906020019060200280838360005b83811015610380578082015181840152602081019050610365565b505050509050019250505060405180910390f35b6103ee600480360381019080803590602001908201803590602001908080601f0160208091040260200160405190810160405280939291908181526020018383808284378201915050505050509192919290505050610d3b565b604051808273ffffffffffffffffffffffffffffffffffffffff1673ffffffffffffffffffffffffffffffffffffffff16815260200191505060405180910390f35b61048a600480360381019080803590602001908201803590602001908080601f0160208091040260200160405190810160405280939291908181526020018383808284378201915050505050509192919290505050610d7f565b604051808273ffffffffffffffffffffffffffffffffffffffff1673ffffffffffffffffffffffffffffffffffffffff16815260200191505060405180910390f35b610526600480360381019080803590602001908201803590602001908080601f0160208091040260200160405190810160405280939291908181526020018383808284378201915050505050509192919290505050610d8d565b6040518082815260200191505060405180910390f35b6105dc600480360381019080803590602001908201803590602001908080601f0160208091040260200160405190810160405280939291908181526020018383808284378201915050505050509192919290803590602001908201803590602001908080601f0160208091040260200160405190810160405280939291908181526020018383808284378201915050505050509192919290505050610db2565b604051808215151515815260200191505060405180910390f35b610650600480360381019080803590602001908201803590602001908080601f0160208091040260200160405190810160405280939291908181526020018383808284378201915050505050509192919290505050610edb565b60405180826000191660001916815260200191505060405180910390f35b6106d2600480360381019080803590602001908201803590602001908080601f016020809104026020016040519081016040528093929190818152602001838380828437820191505050505050919291929080359060200190929190505050610ff6565b604051808273ffffffffffffffffffffffffffffffffffffffff1673ffffffffffffffffffffffffffffffffffffffff16815260200191505060405180910390f35b61076e600480360381019080803590602001908201803590602001908080601f0160208091040260200160405190810160405280939291908181526020018383808284378201915050505050509192919290505050611025565b6040518082600381111561077e57fe5b60ff16815260200191505060405180910390f35b610832600480360381019080803590602001908201803590602001908080601f0160208091040260200160405190810160405280939291908181526020018383808284378201915050505050509192919290803590602001908201803590602001908080601f0160208091040260200160405190810160405280939291908181526020018383808284378201915050505050509192919290505050611045565b604051808215151515815260200191505060405180910390f35b6108a6600480360381019080803590602001908201803590602001908080601f01602080910402602001604051908101604052809392919081815260200183838082843782019150505050505091929192905050506111d3565b6040518082815260200191505060405180910390f35b610916600480360381019080803590602001908201803590602001908080601f01602080910402602001604051908101604052809392919081815260200183838082843782019150505050505091929192905050506111f6565b6040518082815260200191505060405180910390f35b610986600480360381019080803590602001908201803590602001908080601f016020809104026020016040519081016040528093929190818152602001838380828437820191505050505050919291929050505061120e565b6040518082815260200191505060405180910390f35b610a1f600480360381019080803590602001908201803590602001908080601f0160208091040260200160405190810160405280939291908181526020018383808284378201915050505050509192919290803560ff16906020019092919080356000191690602001909291908035600019169060200190929190505050611231565b005b610a7b600480360381019080803590602001908201803590602001908080601f0160208091040260200160405190810160405280939291908181526020018383808284378201915050505050509192919290505050611284565b6040518082815260200191505060405180910390f35b610aeb600480360381019080803590602001908201803590602001908080601f0160208091040260200160405190810160405280939291908181526020018383808284378201915050505050509192919290505050611292565b6040518082815260200191505060405180910390f35b600060606000610b1087611292565b9250610b1b87610be1565b9150600090505b82811015610bd857610b7b878783815181101515610b3c57fe5b906020019060200201518784815181101515610b5457fe5b906020019060200201518785815181101515610b6c57fe5b906020019060200201516112af565b73ffffffffffffffffffffffffffffffffffffffff168282815181101515610b9f57fe5b9060200190602002015173ffffffffffffffffffffffffffffffffffffffff16141515610bcb57600080fd5b8080600101915050610b22565b50505050505050565b606060008060606000610bf386611292565b925082604051908082528060200260200182016040528015610c245781602001602082028038833980820191505090505b509150600090505b82811015610c9857806020026080018601519350838282815181101515610c4f57fe5b9060200190602002019073ffffffffffffffffffffffffffffffffffffffff16908173ffffffffffffffffffffffffffffffffffffffff16815250508080600101915050610c2c565b81945050505050919050565b606060008060606000610cb686611292565b925082604051908082528060200260200182016040528015610ce75781602001602082028038833980820191505090505b509150600090505b82811015610d2f5782810160200260e0018601519350838282815181101515610d1457fe5b90602001906020020181815250508080600101915050610cef565b81945050505050919050565b6000610d4682610be1565b610d4f83611292565b610d58846111d3565b811515610d6157fe5b06815181101515610d6e57fe5b906020019060200201519050919050565b600060208201519050919050565b6000610d9882611292565b610da1836111d3565b811515610daa57fe5b069050919050565b600080600080600080600087518951141515610e5c576040517f08c379a000000000000000000000000000000000000000000000000000000000815260040180806020018281038252603c8152602001807f537461746573206d757374206265207468652073616d65206c656e677468207481526020017f6f206861766520657175616c2067616d6520617474726962757465730000000081525060400191505060405180910390fd5b600060208a51811515610e6b57fe5b06141515610e7857600080fd5b610e81896111f6565b95508560208a5101039450600090505b84811015610ecb57808601915081890151935081880151925082600019168460001916141515610ec057600080fd5b602081019050610e91565b6001965050505050505092915050565b6000610ee682610d7f565b610eef83611284565b610ef884610be1565b604051602001808473ffffffffffffffffffffffffffffffffffffffff1673ffffffffffffffffffffffffffffffffffffffff166c01000000000000000000000000028152601401838152602001828051906020019060200280838360005b83811015610f72578082015181840152602081019050610f57565b5050505090500193505050506040516020818303038152906040526040518082805190602001908083835b602083101515610fc25780518252602082019150602081019050602083039250610f9d565b6001836020036101000a03801982511681845116808217855250505050505090500191505060405180910390209050919050565b60008061100284611292565b9050808310151561101257600080fd5b8260200260800184015191505092915050565b6000806080602061103585611292565b0201905080830151915050919050565b600061105082610ca4565b60405160200180828051906020019060200280838360005b83811015611083578082015181840152602081019050611068565b505050509050019150506040516020818303038152906040526040518082805190602001908083835b6020831015156110d157805182526020820191506020810190506020830392506110ac565b6001836020036101000a03801982511681845116808217855250505050505090500191505060405180910390206000191661110b84610ca4565b60405160200180828051906020019060200280838360005b8381101561113e578082015181840152602081019050611123565b505050509050019150506040516020818303038152906040526040518082805190602001908083835b60208310151561118c5780518252602082019150602081019050602083039250611167565b6001836020036101000a0380198251168184511680821785525050505050509050019150506040518091039020600019161415156111c957600080fd5b6001905092915050565b600080608060206111e385611292565b0260200101905080830151915050919050565b600061120182611292565b60400260e0019050919050565b6000806080602061121e85611292565b0260400101905080830151915050919050565b61123d848484846112af565b73ffffffffffffffffffffffffffffffffffffffff1661125c85610d3b565b73ffffffffffffffffffffffffffffffffffffffff1614151561127e57600080fd5b50505050565b600060408201519050919050565b6000606082015190506002811415156112aa57600080fd5b919050565b6000606060008060006040805190810160405280601c81526020017f19457468657265756d205369676e6564204d6573736167653a0a3332000000008152509350886040518082805190602001908083835b6020831015156113265780518252602082019150602081019050602083039250611301565b6001836020036101000a0380198251168184511680821785525050505050509050019150506040518091039020925083836040516020018083805190602001908083835b60208310151561138f578051825260208201915060208101905060208303925061136a565b6001836020036101000a0380198251168184511680821785525050505050509050018260001916600019168152602001925050506040516020818303038152906040526040518082805190602001908083835b60208310151561140757805182526020820191506020810190506020830392506113e2565b6001836020036101000a03801982511681845116808217855250505050505090500191505060405180910390209150600182898989604051600081526020016040526040518085600019166000191681526020018460ff1660ff1681526020018360001916600019168152602001826000191660001916815260200194505050505060206040516020810390808403906000865af11580156114ad573d6000803e3d6000fd5b505050602060405103519050809450505050509493505050505600a165627a7a723058203cee6bced05d4c383ebd32d3491bb65dd5ed3d8e8b36392b24f87a31d11b07330029",
  "source": "pragma solidity ^0.4.24;\n\nlibrary State {\n    enum StateType { PreFundSetup, PostFundSetup, Game, Conclude }\n\n    // State Fields\n    // ===================\n    // [  0 -  31] (bytestring meta info)\n    // [ 32 -  63] address channelType\n    // [ 64 -  95] uint256 channelNonce\n    // [ 96 - 127] uint256 numberOfParticipants\n    // [128 - x-1] address[] participants\n    // ----------- where x = 128 + 32 * numberOfParticipants\n    // x + [ 0 - 31] uint256 stateType\n    // x + [32 - 63] uint256 turnNum\n    // x + [64 - 95] uint256 stateCount // only relevant for PreFundSetup and PostFundSetup states\n    // x + [96 - y-1] uint256[] resolution\n    // ----------- where y = 224 + 64 * numberOfParticipants\n    // y + [0 -  ?] bytes gameState\n\n    function channelType(bytes _state) public pure returns (address _channelType) {\n        assembly {\n            _channelType := mload(add(_state, 32))\n        }\n    }\n\n    function channelNonce(bytes _state) public pure returns (uint _channelNonce) {\n        assembly {\n            _channelNonce := mload(add(_state, 64))\n        }\n    }\n\n    function numberOfParticipants(bytes _state) public pure returns (uint _numberOfParticipants) {\n        assembly {\n            _numberOfParticipants := mload(add(_state, 96))\n        }\n\n        require(_numberOfParticipants == 2); // for now\n    }\n\n    function participants(bytes _state) public pure returns (address[] ) {\n        address currentParticipant;\n        uint256 n = numberOfParticipants(_state);\n        address[] memory extractedParticipants = new address[](n);\n\n        for(uint i = 0; i < n; i++) {\n            assembly {\n                currentParticipant := mload(add(_state, add(128, mul(32, i))))\n            }\n\n            extractedParticipants[i] = currentParticipant;\n        }\n        return extractedParticipants;\n    }\n\n    function participant(bytes _state, uint _index) public pure returns (address _participant) {\n        uint256 n = numberOfParticipants(_state);\n        require(_index < n);\n\n        assembly {\n            _participant := mload(add(_state, add(128, mul(32, _index))))\n        }\n    }\n\n    function stateType(bytes _state) public pure returns (StateType _stateType) {\n        uint256 offset = numberOfParticipants(_state) * 32 + 128;\n        assembly {\n            _stateType := mload(add(_state, offset))\n        }\n    }\n\n    function turnNum(bytes _state) public pure returns (uint _turnNum) {\n        uint256 offset = 32 + numberOfParticipants(_state) * 32 + 128;\n        assembly {\n            _turnNum := mload(add(_state, offset))\n        }\n    }\n\n    function stateCount(bytes _state) public pure returns (uint _stateCount) {\n        uint256 offset = 64 + numberOfParticipants(_state) * 32 + 128;\n        assembly {\n            _stateCount := mload(add(_state, offset))\n        }\n    }\n\n    function resolution(bytes _state) public pure returns (uint256[] ) {\n        uint256 currentResolutionValue;\n        uint256 n = numberOfParticipants(_state);\n        uint256[] memory extractedResolution = new uint256[](n);\n\n        for(uint i = 0; i < n; i++) {\n            assembly {\n                currentResolutionValue := mload(add(_state, add(224, mul(32, add(i, n)))))\n            }\n\n            extractedResolution[i] = currentResolutionValue;\n        }\n        return extractedResolution;\n    }\n\n    function channelId(bytes _state) public pure returns (bytes32) {\n        return keccak256(\n            abi.encodePacked(channelType(_state), channelNonce(_state), participants(_state))\n        );\n    }\n\n    function mover(bytes _state) public pure returns (address) {\n        return participants(_state)[turnNum(_state) % numberOfParticipants(_state)];\n    }\n\n    function indexOfMover(bytes _state) public pure returns (uint) {\n        return turnNum(_state) % numberOfParticipants(_state);\n    }\n\n    function requireSignature(bytes _state, uint8 _v, bytes32 _r, bytes32 _s) public pure {\n        require(mover(_state) == recoverSigner(_state, _v, _r, _s));\n    }\n\n    function requireFullySigned(bytes _state, uint8[] _v, bytes32[] _r, bytes32[] _s) public pure {\n        uint256 n = numberOfParticipants(_state);\n        address[] memory p = participants(_state);\n\n        for(uint i = 0; i < n; i++) {\n            require(p[i] == recoverSigner(_state, _v[i], _r[i], _s[i]));\n        }\n    }\n\n    function gameStateOffset(bytes _state) public pure returns (uint) {\n        return 224 + 64 * numberOfParticipants(_state);\n    }\n\n\n    function gameAttributesEqual(bytes _state, bytes _otherState) public pure returns (bool) {\n        require(_state.length == _otherState.length, \"States must be the same length to have equal game attributes\");\n        require(_state.length % 32 == 0);\n\n        uint256 gameOffset = gameStateOffset(_state);\n        // need to add 32 because _state.length doesn't include the meta info\n        uint256 attributesLength = _state.length + 32 - gameOffset;\n\n        bytes32 chunk;\n        bytes32 otherChunk;\n        uint256 offset;\n\n        // we require that _state.length is a multiple of 32, so this is ok\n        // this is nasty - there's probably a better way of checking equality\n        // todo: fix this\n        for(uint i = 0; i < attributesLength; i += 32) {\n            assembly {\n                offset := add(gameOffset, i)\n                chunk := mload(add(_state, offset))\n                otherChunk := mload(add(_otherState, offset))\n            }\n            require(chunk == otherChunk);\n        }\n\n        return true;\n    }\n\n    function resolutionsEqual(bytes _state, bytes _otherState) public pure returns (bool) {\n        require(keccak256(abi.encodePacked(resolution(_state))) == keccak256(abi.encodePacked(resolution(_otherState))));\n        return true;\n    }\n\n    // utilities\n    // =========\n\n    function recoverSigner(bytes _d, uint8 _v, bytes32 _r, bytes32 _s) internal pure returns(address) {\n        bytes memory prefix = \"\\x19Ethereum Signed Message:\\n32\";\n        bytes32 h = keccak256(_d);\n\n        bytes32 prefixedHash = keccak256(abi.encodePacked(prefix, h));\n\n        address a = ecrecover(prefixedHash, _v, _r, _s);\n\n        return(a);\n    }\n}\n",
  "sourcePath": "fmg-core/contracts/State.sol",
  "compiler": {
    "name": "solc",
    "version": "0.4.24+commit.e67f0147.Emscripten.clang"
  },
  "schemaVersion": "2.0.1",
  "updatedAt": "2018-10-07T22:12:49.561Z"
}